:020000040800F2
:100000005007002069020008A5020008A7020008A6
:10001000A9020008AB020008AD02000800000000C1
:10002000000000000000000000000000AF02000817
:10003000B102000800000000B3020008990900089E
:10004000B7020008B7020008B7020008B7020008AC
:10005000B7020008B7020008B7020008B70200089C
:10006000B7020008B7020008B7020008B70200088C
:10007000B7020008B7020008B7020008B70200087C
:10008000B7020008B7020008B7020008B70200086C
:10009000B7020008B7020008B7020008850600088A
:1000A000B7020008B7020008B7020008B70200084C
:1000B000B7020008B7020008B7020008B70200083C
:1000C000B7020008B7020008B7020008B70200082C
:1000D000B7020008B7020008B7020008B70200081C
:1000E000B7020008B7020008B7020008B70200080C
:1000F000B7020008B7020008B7020008B7020008FC
:10010000B7020008B7020008B7020008B7020008EB
:10011000B7020008B7020008B7020008B7020008DB
:10012000B7020008B7020008B7020008B7020008CB
:10013000B7020008B7020008B7020008B7020008BB
:10014000B7020008B7020008B7020008B7020008AB
:10015000B7020008B7020008B7020008B70200089B
:10016000B7020008B7020008B7020008B70200088B
:10017000B7020008B7020008B7020008000000003C
:10018000B7020008B702000800F002F800F042F8D9
:100190000AA090E8000C82448344AAF10107DA45E2
:1001A00001D100F037F8AFF2090EBAE80F0013F0F2
:1001B000010F18BFFB1A43F0010318470C0B000096
:1001C0002C0B0000103A24BF78C878C1FAD8520727
:1001D00024BF30C830C144BF04680C6070470000C1
:1001E0000023002400250026103A28BF78C1FBD840
:1001F000520728BF30C148BF0B6070471FB500F0E1
:100200005EFD9DE8030000F0DFF800F0B4F81FBDCC
:1002100010B510BD00F05CF91146FFF7EFFF00F0DC
:1002200097FC00F07AF903B4FFF7F2FF03BC00F08B
:10023000ABF900000B49D1F800C04A685CF8043BF8
:100240001068184442F8040B8C4528BFA1F1DC0C5F
:100250008A4228BFA1F1DC02C1F800C04A6020F048
:1002600000407047E800002016481749174B994294
:100270003CBF50F8042B41F8042BF8D314494FF03D
:1002800000028B4238BF43F8042BFAD3DFF8440056
:10029000016841F470010160BFF34F8FBFF36F8FAE
:1002A0000D480047FEE7FEE7FEE7FEE7FEE7FEE754
:1002B000FEE7FEE7FEE7FEE708480949094A0A4B60
:1002C00070470000E80C0008000000200C0000202F
:1002D0005007002088ED00E089010008500100204F
:1002E00050070020500300205003002070B5064640
:1002F00000F04EF8056806F10B0020F00704B44248
:100300009CBF002070BD2B466A68BAB11068A0423D
:1003100010D304F1080188423CBF5068586007D3ED
:100320005168101941601168091B01605860146020
:10033000101D70BD13465268002AE7D12146284699
:1003400000F02EF80028DED170BD00000B4910B57A
:10035000A1F17C020A4CC2E93712372106E000EB1A
:10036000104342F82130074B00FB03400B1EA1F164
:100370000101F4DC10BD0120E8E700008800002046
:10038000E119D666CD0D0100704770477047000037
:1003900000487047F800002070477047704770476A
:1003A00038B504460A4600206946AFF300800028AD
:1003B00008BF38BD02460099204600F067F80120CA
:1003C00038BD012000F07CB8F8B5AFF300800546D9
:1003D00000200C46102000BF0646A819A0420DD9E7
:1003E000324669460020AFF30080070008BF00F0E6
:1003F00067F80098A04218BF0546C419FFF7C8FF68
:1004000005600746F01D20F007004619284600F059
:100410000AF8B44208BFF8BDA21B31463868BDE8EF
:10042000F84000F033B800210160C0E901107047C6
:100430001020704770B50446051FFFF7A9FF00683C
:10044000002C14BF446870BD002C18BFAC423CBFE8
:1004500020466468F8D301680A18AA4218BF4560AC
:1004600003D12A6805461144016028684119A14258
:100470001CBF6C6070BD61686960216808442860B9
:1004800070BD000000487047F0000020034640683F
:100490008C46002818BF88423CBF03464068F8D30A
:1004A00018681844884207D00CF1030020F00700B8
:1004B000001D411A521A0146081D0A60FFF7BABF13
:1004C00010B500F039F8BDE8104000F02FB87047C3
:1004D0007546FFF7D7FFAE4605006946534620F044
:1004E0000700854618B020B5FFF7E6FEBDE82040BE
:1004F0004FF000064FF000074FF000084FF0000BE0
:1005000021F00701AC46ACE8C009ACE8C009ACE892
:10051000C009ACE8C0098D46704710B50446AFF37A
:1005200000802046BDE81040FFF77DBE002801D0C6
:1005300000F02AB87047000010B5012805D000214E
:1005400003A000F027F8012010BD09A1F8E7000082
:1005500053494752544D454D3A204F7574206F66AC
:100560002068656170206D656D6F72790000000014
:100570003A2048656170206D656D6F727920636FF8
:10058000727275707465640001491820ABBEFEE795
:100590002600020070B505460C460A2000E06D1CDE
:1005A00000F011F835B128780028F8D102E0641C79
:1005B00000F009F814B120780028F8D1BDE87040A7
:1005C0000A20AFF3008008B569468DF800000320CB
:1005D000ABBE08BD2948C06C40F004002749C86480
:1005E0002748006820F440602549086024480C3002
:1005F000006820F4406022490C3108600846006819
:1006000040F4806008601E48006820F440501C4997
:1006100008601B480C30006820F4405018490C3129
:1006200008600846006840F480500860144800687C
:1006300020F440301249086011480C30006820F462
:1006400040300F490C3108600846006840F48030A3
:1006500008600B48006820F44020094908600848F9
:100660000C30006820F4402005490C310860084631
:10067000006840F4802008607047000000100240CD
:100680000008004810B50A48006800F4007038B14E
:1006900000F026F80648006820F40070044908605D
:1006A0000448006840F400700249086010BD000072
:1006B00010080048140401400348006820F00100BD
:1006C00001490860704700001408004803480068AA
:1006D00040F001000149086070470000140800481C
:1006E0000348006880F0010001490860704700007D
:1006F000140800480348006820F00200014908601F
:1007000070470000140800480348006840F00200E9
:100710000149086070470000140800480348006859
:1007200080F002000149086070470000140800488A
:100730000348006820F00400014908607047000089
:10074000140800480348006840F0040001490860AC
:1007500070470000140800480348006880F0040057
:100760000149086070470000140800480348006809
:1007700020F0080001490860704700001408004894
:100780000348006840F00800014908607047000015
:10079000140800480348006880F008000149086018
:1007A00070470000140800484348C06C40F0010046
:1007B0004149C8640846C06C40F00400C8644FF06A
:1007C0009040006820F400604FF0904108600846B7
:1007D000006840F4806008600846406820F020000F
:1007E00048600846C06820F44060C860334800682C
:1007F00020F00200314908600846006840F001001E
:100800000860081D006820F00100091D08602B48E1
:100810000C30006820F0030028490C31086027489C
:10082000006820F00800254908600846006840F08C
:1008300004000860081D006820F00200091D08601F
:100840001E480C30006820F00C001C490C31086078
:100850001A48006820F0200018490860084600681F
:1008600040F010000860081D006820F00400091D19
:10087000086012480C30006820F030000F490C313D
:1008800008600E48006820F080000C4908600846A7
:10089000006840F040000860081D006820F0080073
:1008A000091D086005480C30006820F0C0000349AD
:1008B0000C3108607047000000100240000800483A
:1008C00000B5024632B1012A07D0022A08D0032A15
:1008D0000CD108E0FFF7F0FE08E0FFF70BFF05E0A2
:1008E000FFF726FF02E0FFF741FF00BF00BF00BD9A
:1008F00000B5024632B1012A07D0022A08D0032AE5
:100900000CD108E0FFF7E2FE08E0FFF7FDFE05E08E
:10091000FFF718FF02E0FFF733FF00BF00BF00BD85
:1009200000B5024632B1012A07D0022A08D0032AB4
:100930000CD108E0FFF7D4FE08E0FFF7EFFE05E07A
:10094000FFF70AFF02E0FFF725FF00BF00BF00BD71
:100950000F48C06C40F480200D49C8640846C06A46
:1009600040F48020C8620846C06A20F48020C86233
:100970000848006840F004000649086000BF0548C8
:10098000001D006800F001000028F8D0704700004A
:10099000001002400008065002480068401C01494F
:1009A000086070470800002010B500204FF0E021DB
:1009B000086140F2CF70486100208861401E002825
:1009C0000DDB00BF00BF00F01F0201219140420972
:1009D000920002F1E022C2F8001100BF00BF00BF88
:1009E0004FF0FF300121002804DB0A07130E0F4AE5
:1009F000135406E00A07140E0D4A00F00F031B1FE4
:100A0000D45400BF4FF0E020006940F002004FF0E6
:100A1000E02108610846006920F0040008610846EA
:100A2000006940F00100086110BD000000E400E032
:100A300018ED00E02048806820F003001E4988601F
:100A40000846006820F0F00008600846006840F0A2
:100A5000700008600846006840F00800086008461A
:100A6000006840F00100086000BF1348006800F013
:100A700002000028F9D01048006840F480700E4948
:100A8000086000BF0C48006800F480600028F9D0BE
:100A90000948806820F0030007498860084680689C
:100AA00040F00100886000BF0348806800F00C003F
:100AB0000028F9D0704700000010024000210160BA
:100AC00041608160704710B53420FFF70FFC044689
:100AD000002020606060A060204610BD044A1168BC
:100AE00000BF034A1268521A8242FAD970470000C6
:100AF000080000200146886808B9012070470020DE
:100B0000FCE70000014631B101290AD002290ED0CC
:100B1000032918D111E00D480068012222EA501083
:100B200070470A480068012222EA9010F8E7074857
:100B30000068012222EA1020F2E70448006801223E
:100B400022EA5020ECE70020EAE700001008004805
:100B5000FFF770FFFFF728FFFFF726FEFFF73AFDCC
:100B6000FFF7F6FEFFF7AFFF07467CE03846FFF7DA
:100B7000A5FF002419E0FFF75DFB3B49096890FBE6
:100B8000F1F201FB12063146384600F084F8304697
:100B9000FFF7AEFE4FF47A70FFF7A0FF3046FFF785
:100BA0008FFE6420FFF79AFF641C3048006884427F
:100BB000E1DB24E000241BE02046FFF7A3FFB0B1F7
:100BC0002046FFF795FE384600F052F8A04200D0CC
:100BD00030E000BF2046FFF795FF0028FAD12046FD
:100BE000FFF76EFE3846FFF785FF00B108E0641C92
:100BF0001D4800688442DFDB0120FFF76FFFD9E763
:100C00004FF4FA70FFF76AFF00240CE0002503E0C0
:100C10002846FFF785FE6D1C042DF9DB4FF4967016
:100C2000FFF75CFF641C042CF0DB4FF47A70FFF7D5
:100C300055FF18E04FF4FA70FFF750FF002403E06F
:100C40002046FFF755FE641C042CF9DB40F6B83053
:100C5000FFF744FF002403E02046FFF731FE641C49
:100C6000042CF9DB00BF81E7040000200000002015
:100C700010B5014601F10C020B6852F823000A6816
:100C8000521C0A2392FBF3F403FB14220A608A68C5
:100C9000521E8A6010BD10B500F10C02436842F884
:100CA00023104268521C42600A23426892FBF3F40C
:100CB00003FB142242608268521C826010BD4FF018
:100CC0004070E1EE100A7047E80C000800000020B8
:100CD0000C000000C4010008F40C00080C00002007
:100CE00044070000E00100080200000002000000CC
:040CF0000000000000
:040000050800018965
:00000001FF
