:020000040800F2
:1000000058070020610200089D0200089F020008B6
:10001000A1020008A3020008A502000800000000D9
:10002000000000000000000000000000A70200081F
:10003000A902000800000000AB02000889070008C0
:10004000AF020008AF020008AF020008AF020008CC
:10005000AF020008AF020008AF020008AF020008BC
:10006000AF020008AF020008AF020008AF020008AC
:10007000AF020008AF020008AF020008AF0200089C
:10008000AF020008AF020008AF020008AF0200088C
:10009000AF020008AF020008AF0200084D040008DC
:1000A000AF020008AF020008AF020008AF0200086C
:1000B000AF020008AF020008AF020008AF0200085C
:1000C000AF020008AF020008AF020008AF0200084C
:1000D000AF020008AF020008AF020008AF0200083C
:1000E000AF020008AF020008AF020008AF0200082C
:1000F000AF020008AF020008AF020008AF0200081C
:10010000AF020008AF020008AF020008AF0200080B
:10011000AF020008AF020008AF020008AF020008FB
:10012000AF020008AF020008AF020008AF020008EB
:10013000AF020008AF020008AF020008AF020008DB
:10014000AF020008AF020008AF020008AF020008CB
:10015000AF020008AF020008AF020008AF020008BB
:10016000AF020008AF020008AF020008AF020008AB
:10017000AF020008AF020008AF0200080000000054
:10018000AF020008AF02000800F002F800F03EF8ED
:100190000AA090E8000C82448344AAF10107DA45E2
:1001A00001D100F033F8AFF2090EBAE80F0013F0F6
:1001B000010F18BFFB1A43F001031847B0080000F5
:1001C000D0080000103A24BF78C878C1FAD8520786
:1001D00024BF30C830C144BF04680C6070470000C1
:1001E0000023002400250026103A28BF78C1FBD840
:1001F000520728BF30C148BF0B6070471FB500F0E1
:100200002FFC00F084F81FBD10B510BD00F091F870
:100210001146FFF7F3FF00F07BFB00F0AFF803B4EB
:10022000FFF7F2FF03BC00F0B3F800000B49D1F870
:1002300000C04A685CF8043B1068184442F8040B9C
:100240008C4528BFA1F1DC0C8A4228BFA1F1DC0259
:10025000C1F800C04A6020F000407047EC00002068
:1002600016481749174B99423CBF50F8042B41F8E8
:10027000042BF8D314494FF000028B4238BF43F8E7
:10028000042BFAD3DFF84400016841F470010160E7
:10029000BFF34F8FBFF36F8F0D480047FEE7FEE7B8
:1002A000FEE7FEE7FEE7FEE7FEE7FEE7FEE7FEE726
:1002B00008480949094A0A4B704700008C0A00089F
:1002C00000000020100000205807002088ED00E00A
:1002D0008901000858010020580700205803002019
:1002E000580300200B4910B5A1F17C020A4CC2E969
:1002F0003712372106E000EB104342F82130074B5C
:1003000000FB03400B1EA1F10101F4DC10BD012034
:10031000E8E700008C000020E119D666CD0D010051
:10032000704770477047000000487047F400002095
:1003300070477546FFF7F8FFAE460500694653461D
:1003400020F00700854618B020B5FFF7B1FFBDE8E3
:1003500020404FF000064FF000074FF000084FF02C
:10036000000B21F00701AC46ACE8C009ACE8C009BD
:10037000ACE8C009ACE8C0098D46704710B504462A
:10038000AFF300802046BDE81040FFF748BF0000F3
:1003900001491820ABBEFEE7260002002948C06CC8
:1003A00040F004002749C8642748006820F44060F2
:1003B0002549086024480C30006820F44060224938
:1003C0000C3108600846006840F4806008601E48F0
:1003D000006820F440501C4908601B480C3000683D
:1003E00020F4405018490C3108600846006840F479
:1003F000805008601448006820F4403012490860BA
:1004000011480C30006820F440300F490C3108606E
:100410000846006840F4803008600B48006820F40B
:1004200040200949086008480C30006820F440204A
:1004300005490C3108600846006840F480200860D7
:1004400070470000001002400008004810B50A483C
:10045000006800F4007038B100F02EF8064800681B
:1004600020F40070044908600448006840F40070FB
:100470000249086010BD0000100800481404014043
:100480000348006820F0010001490860704700003F
:10049000140800480348006840F001000149086062
:1004A00070470000140800480248006800F001008E
:1004B00070470000140800480348006880F00100FD
:1004C00001490860704700001408004803480068AC
:1004D00020F002000149086070470000140800483D
:1004E0000348006840F002000149086070470000BE
:1004F000140800480248006800F00200704700003D
:10050000140800480348006880F0020001490860B0
:1005100070470000140800480348006820F00400F9
:10052000014908607047000014080048034800684B
:1005300040F00400014908607047000014080048BA
:100540000248006800F004007047000014080048EA
:100550000348006880F0040001490860704700000B
:10056000140800480348006820F0080001490860AA
:1005700070470000140800480348006840F0080075
:1005800001490860704700001408004802480068EC
:1005900000F0040070470000140800480348006899
:1005A00080F0080001490860704700001408004806
:1005B0004348C06C40F001004149C8640846C06C23
:1005C00040F00400C8644FF09040006820F40060E0
:1005D0004FF0904108600846006840F48060086071
:1005E0000846406820F0200048600846C06820F4B3
:1005F0004060C8603348006820F00200314908605C
:100600000846006840F001000860081D006820F0FE
:100610000100091D08602B480C30006820F0030021
:1006200028490C3108602748006820F00800254957
:1006300008600846006840F004000860081D006873
:1006400020F00200091D08601E480C30006820F0F0
:100650000C001C490C3108601A48006820F020008A
:10066000184908600846006840F010000860081D3E
:10067000006820F00400091D086012480C30006872
:1006800020F030000F490C3108600E48006820F05F
:1006900080000C4908600846006840F0400008608F
:1006A000081D006820F00800091D086005480C308E
:1006B000006820F0C00003490C310860704700005A
:1006C000001002400008004800B5024632B1012A7D
:1006D00007D0022A08D0032A0CD108E0FFF7D0FE89
:1006E00008E0FFF7F3FE05E0FFF716FF02E0FFF773
:1006F00039FF00BF00BF00BD00B5024632B1012A7C
:1007000007D0022A08D0032A0CD108E0FFF7C2FE66
:1007100008E0FFF7E5FE05E0FFF708FF02E0FFF75E
:100720002BFF00BF00BF00BD00B5014631B101295C
:1007300007D0022908D003290CD108E0FFF7B4FE46
:1007400000BDFFF7D7FEFBE7FFF7FAFEF8E7FFF77C
:100750001DFFF5E700BFF3E700B5024632B1012AFD
:1007600007D0022A08D0032A0CD108E0FFF7A4FE24
:1007700008E0FFF7C7FE05E0FFF7EAFE02E0FFF73B
:100780000DFF00BF00BF00BD02480068401C0149CA
:10079000086070470C00002010B500204FF0E021E9
:1007A000086140F2CF70486100208861401E002837
:1007B0000DDB00BF00BF00F01F0201219140420984
:1007C000920002F1E022C2F8001100BF00BF00BF9A
:1007D0004FF0FF300121002804DB0A07130E0F4AF7
:1007E000135406E00A07140E0D4A00F00F031B1FF6
:1007F000D45400BF4FF0E020006940F002004FF0F9
:10080000E02108610846006920F0040008610846FC
:10081000006940F00100086110BD000000E400E044
:1008200018ED00E02048806820F003001E49886031
:100830000846006820F0F00008600846006840F0B4
:10084000700008600846006840F00800086008462C
:10085000006840F00100086000BF1348006800F025
:1008600002000028F9D01048006840F480700E495A
:10087000086000BF0C48006800F480600028F9D0D0
:100880000948806820F003000749886008468068AE
:1008900040F00100886000BF0348806800F00C0051
:1008A0000028F9D07047000000100240044A116887
:1008B00000BF034A1268521A8242FAD970470000F8
:1008C0000C000020014631B101290AD002290ED0C6
:1008D000032918D111E00D480068012222EA5010C6
:1008E00070470A480068012222EA9010F8E707489A
:1008F0000068012222EA1020F2E704480068012281
:1009000022EA5020ECE70020EAE700001008004847
:10091000FFF788FFFFF740FFFFF74AFEFFF73EFDB6
:1009200094E0002403E02046FFF7CEFE641C484814
:1009300000688442F7DB4FF4FA70FFF7B7FF4548D1
:1009400005680FE0FFF772FC4149096890FBF1F27E
:1009500001FB12042046FFF7E7FE18B96D1E204682
:10096000FFF7CAFE002DEDD13B4807681BE00024CD
:1009700007E02046FFF7A6FF10B12046FFF7A4FED0
:10098000641C334800688442F3DB0025002404E043
:100990002046FFF7C9FE0543641C2D4800688442C9
:1009A000F6DB05B907E02C480068C01B2B49096835
:1009B0008842DCD323E0002403E02046FFF784FED6
:1009C000641C234800688442F7DB6420FFF76EFF55
:1009D00000240DE0002603E03046FFF7BDFE761C44
:1009E0001B4800688642F7DB9620FFF75FFF641C18
:1009F000042CEFDB4FF47A70FFF758FF26E0002459
:100A000003E02046FFF760FE641C11480068844242
:100A1000F7DB4FF4FA70FFF749FF002403E02046AC
:100A2000FFF76AFE641C0A4800688442F7DB40F264
:100A3000DC50FFF73BFF002403E02046FFF744FEB5
:100A4000641C034800688442F7DB00BF69E70000CC
:100A500004000020000000200C00002008000020FE
:100A60004FF04070E1EE100A704700008C0A000859
:100A70000000002010000000C40100089C0A0008CB
:100A80001000002048070000E001000801000000FD
:0C0A900002000000B80B00000000000095
:040000050800018965
:00000001FF
