:020000040800F2
:1000000058070020610200089D0200089F020008B6
:10001000A1020008A3020008A502000800000000D9
:10002000000000000000000000000000A70200081F
:10003000A902000800000000AB020008850A0008C1
:10004000AF020008AF020008AF020008AF020008CC
:10005000AF020008AF020008AF020008AF020008BC
:10006000AF020008AF020008AF020008AF020008AC
:10007000AF020008AF020008AF020008AF0200089C
:10008000AF020008AF020008AF020008AF0200088C
:10009000AF020008AF020008AF0200084D040008DC
:1000A000AF020008AF020008AF020008AF0200086C
:1000B000AF020008AF020008AF020008AF0200085C
:1000C000AF020008AF020008AF020008AF0200084C
:1000D000AF020008AF020008AF020008AF0200083C
:1000E000AF020008AF020008AF020008AF0200082C
:1000F000AF020008AF020008AF020008AF0200081C
:10010000AF020008AF020008AF020008AF0200080B
:10011000AF020008AF020008AF020008AF020008FB
:10012000AF020008AF020008AF020008AF020008EB
:10013000AF020008AF020008AF020008AF020008DB
:10014000AF020008AF020008AF020008AF020008CB
:10015000AF020008AF020008AF020008AF020008BB
:10016000AF020008AF020008AF020008AF020008AB
:10017000AF020008AF020008AF0200080000000054
:10018000AF020008AF02000800F002F800F03EF8ED
:100190000AA090E8000C82448344AAF10107DA45E2
:1001A00001D100F033F8AFF2090EBAE80F0013F0F6
:1001B000010F18BFFB1A43F001031847D40B0000CE
:1001C000F40B0000103A24BF78C878C1FAD852075F
:1001D00024BF30C830C144BF04680C6070470000C1
:1001E0000023002400250026103A28BF78C1FBD840
:1001F000520728BF30C148BF0B6070471FB500F0E1
:10020000C1FD00F084F81FBD10B510BD00F091F8DD
:100210001146FFF7F3FF00F0F9FC00F0AFF803B46C
:10022000FFF7F2FF03BC00F0B3F800000B49D1F870
:1002300000C04A685CF8043B1068184442F8040B9C
:100240008C4528BFA1F1DC0C8A4228BFA1F1DC0259
:10025000C1F800C04A6020F000407047EC00002068
:1002600016481749174B99423CBF50F8042B41F8E8
:10027000042BF8D314494FF000028B4238BF43F8E7
:10028000042BFAD3DFF84400016841F470010160E7
:10029000BFF34F8FBFF36F8F0D480047FEE7FEE7B8
:1002A000FEE7FEE7FEE7FEE7FEE7FEE7FEE7FEE726
:1002B00008480949094A0A4B70470000B00D000878
:1002C00000000020100000205807002088ED00E00A
:1002D0008901000858010020580700205803002019
:1002E000580300200B4910B5A1F17C020A4CC2E969
:1002F0003712372106E000EB104342F82130074B5C
:1003000000FB03400B1EA1F10101F4DC10BD012034
:10031000E8E700008C000020E119D666CD0D010051
:10032000704770477047000000487047F400002095
:1003300070477546FFF7F8FFAE460500694653461D
:1003400020F00700854618B020B5FFF7B1FFBDE8E3
:1003500020404FF000064FF000074FF000084FF02C
:10036000000B21F00701AC46ACE8C009ACE8C009BD
:10037000ACE8C009ACE8C0098D46704710B504462A
:10038000AFF300802046BDE81040FFF748BF0000F3
:1003900001491820ABBEFEE7260002002948C06CC8
:1003A00040F004002749C8642748006820F44060F2
:1003B0002549086024480C30006820F44060224938
:1003C0000C3108600846006840F4806008601E48F0
:1003D000006820F440501C4908601B480C3000683D
:1003E00020F4405018490C3108600846006840F479
:1003F000805008601448006820F4403012490860BA
:1004000011480C30006820F440300F490C3108606E
:100410000846006840F4803008600B48006820F40B
:1004200040200949086008480C30006820F440204A
:1004300005490C3108600846006840F480200860D7
:1004400070470000001002400008004810B50A483C
:10045000006800F4007038B100F0ACF9064800689C
:1004600020F40070044908600448006840F40070FB
:100470000249086010BD0000100800481404014043
:100480004FF09040406980F020004FF0904148616B
:10049000704700002948C06C40F002002749C8643A
:1004A0002748006820F44050254908600846006845
:1004B00040F4005008600846006820F4404008609E
:1004C0000846006840F4004008601D48203000687D
:1004D00020F07F401A49203108600846006840F04B
:1004E0008840086016480830006840F440501449BD
:1004F000083108600846006840F440400860081F62
:10050000006840F04000091F08600846006840F09D
:10051000800008600A480C30006820F470400849E8
:100520000C3108600846006840F4805008600846B6
:10053000006840F4804008607047000000100240EE
:100540000004004852205349896D41F40011514A7A
:10055000916550498831096821F44051C2F88810EA
:100560001146D1F8881041F48051C2F88810114624
:10057000896B41F4001191631146896B21F40011DC
:1005800091634549096821F00101434A1160114610
:10059000096821F4805111601146096821F47061E5
:1005A00011601146096841F0800111601146096827
:1005B00021F400311160111D096821F40061121D40
:1005C00011601146096841F0007111601146096817
:1005D00041F40041116030491031096821F0704147
:1005E0002D4A103211601146096841F0E041116056
:1005F0001146096821F4700111601146096841F43F
:10060000300111601146096821F470211160114612
:10061000096841F4602111601146096821F47F41A5
:1006200011601146096841F42451116011460968AE
:1006300021F0FF0111601146096841F0300111609D
:1006400015490831096821F40041134A0832116044
:10065000111D096821F40041121D1160111F096864
:1006600021F48061121F1160114609686FF30901BE
:1006700011601146096841EA40011160114609689C
:1006800041F4004111600449096841F00101024A46
:100690001160704700100240005400402DE9F04105
:1006A0000446884617461D46002D00DD1FB94FF051
:1006B000FF30BDE8F081204600F057F800232A46BD
:1006C0004146204600F028F8002802DA4FF0FF30BB
:1006D000EFE7002608E000BFA06900F00200002854
:1006E000FAD0B85DA062761CAE42F4DB00BFA06910
:1006F00000F0400020B9A06900F010000028F6D0FA
:10070000A06900F0100010B14FF0FF30D1E7204693
:1007100000F020F80020CCE770B504460D4600211B
:1007200061680B480140012B02D141F4806101E076
:1007300021F48061C5F309004FF47F0606EA024602
:100740003043014341F400516160002070BD00005E
:10075000009800FC416841F48041416000BF81691C
:1007600001F020010029FAD0704700BF816901F42F
:100770000041B1F5004FF9D0704700000348006810
:1007800020F001000149086070470000140800488B
:100790000348006840F0010001490860704700000C
:1007A000140800480248006800F00100704700008B
:1007B000140800480348006880F0010001490860FF
:1007C00070470000140800480348006820F0020049
:1007D0000149086070470000140800480348006899
:1007E00040F002000149086070470000140800480A
:1007F0000248006800F0020070470000140800483A
:100800000348006880F0020001490860704700005A
:10081000140800480348006820F0040001490860FB
:1008200070470000140800480348006840F00400C6
:100830000149086070470000140800480248006839
:1008400000F00400704700001408004803480068E6
:1008500080F0040001490860704700001408004857
:100860000348006820F00800014908607047000054
:10087000140800480348006840F008000149086077
:1008800070470000140800480248006800F00400A7
:1008900070470000140800480348006880F0080012
:1008A0000149086070470000140800484348C06CC4
:1008B00040F001004149C8640846C06C40F00400A3
:1008C000C8644FF09040006820F400604FF0904101
:1008D00008600846006840F4806008600846406888
:1008E00020F0200048600846C06820F44060C860DE
:1008F0003348006820F0020031490860084600686B
:1009000040F001000860081D006820F00100091D8A
:1009100008602B480C30006820F0030028490C3197
:1009200008602748006820F008002549086008464C
:10093000006840F004000860081D006820F0020014
:10094000091D08601E480C30006820F00C001C498E
:100950000C3108601A48006820F02000184908602F
:100960000846006840F010000860081D006820F08C
:100970000400091D086012480C30006820F03000A7
:100980000F490C3108600E48006820F080000C49C7
:1009900008600846006840F040000860081D0068D4
:1009A00020F00800091D086005480C30006820F0A0
:1009B000C00003490C31086070470000001002407D
:1009C0000008004800B5024632B1012A07D0022AC9
:1009D00008D0032A0CD108E0FFF7D0FE08E0FFF7AB
:1009E000F3FE05E0FFF716FF02E0FFF739FF00BF57
:1009F00000BF00BD00B5024632B1012A07D0022A6D
:100A000008D0032A0CD108E0FFF7C2FE08E0FFF788
:100A1000E5FE05E0FFF708FF02E0FFF72BFF00BF50
:100A200000BF00BD00B5014631B1012907D0022940
:100A300008D003290CD108E0FFF7B4FE00BDFFF792
:100A4000D7FEFBE7FFF7FAFEF8E7FFF71DFFF5E734
:100A50000020F3E700B5024632B1012A07D0022A8E
:100A600008D0032A0CD108E0FFF7A4FE08E0FFF746
:100A7000C7FE05E0FFF7EAFE02E0FFF70DFF00BF4B
:100A800000BF00BD02480068401C01490860704773
:100A90000C00002010B500204FF0E021086140F26A
:100AA000CF70486100208861401E00280DDB00BF28
:100AB00000BF00F01F02012191404209920002F1A3
:100AC000E022C2F8001100BF00BF00BF4FF0FF30AE
:100AD0000121002804DB0A07130E0F4A135406E015
:100AE0000A07140E0D4A00F00F031B1FD45400BF59
:100AF0004FF0E020006940F002004FF0E021086173
:100B00000846006920F0040008610846006940F0CA
:100B10000100086110BD000000E400E018ED00E0F5
:100B20002048806820F003001E498860084600685D
:100B300020F0F00008600846006840F0700008608F
:100B40000846006840F0080008600846006840F069
:100B50000100086000BF1348006800F00200002890
:100B6000F9D01048006840F480700E49086000BF5A
:100B70000C48006800F480600028F9D009488068BB
:100B800020F00300074988600846806840F00100B3
:100B9000886000BF0348806800F00C000028F9D08E
:100BA0007047000000100240044A116800BF034A69
:100BB0001268521A8242FAD9704700000C000020D5
:100BC000014631B101290AD002290ED0032918D1DA
:100BD00011E00D480068012222EA501070470A48CF
:100BE0000068012222EA9010F8E707480068012215
:100BF00022EA1020F2E704480068012222EA50208D
:100C0000ECE70020EAE700001008004808B5FFF70D
:100C100087FFFFF73FFFFFF749FEFFF7BFFBFFF737
:100C200039FCFFF78FFC4FF0F008A5200090FFF78C
:100C300027FC08236A4641464D48FFF72FFDFFF782
:100C40001FFC94E0002403E02046FFF7BBFE641C79
:100C5000484800688442F7DB4FF4FA70FFF7A4FFBE
:100C6000454805680FE0FFF7E1FA4249096890FB43
:100C7000F1F201FB12042046FFF7D4FE18B96D1EF5
:100C80002046FFF7B7FE002DEDD13C4807681BE07A
:100C9000002407E02046FFF793FF10B12046FFF73E
:100CA00091FE641C334800688442F3DB0025002475
:100CB00004E02046FFF7B6FE0543641C2D4800689B
:100CC0008442F6DB05B907E02C480068C01B2C49BC
:100CD00009688842DCD323E0002403E02046FFF7C4
:100CE00071FE641C234800688442F7DB6420FFF730
:100CF0005BFF00240DE0002603E03046FFF7AAFE6C
:100D0000761C1C4800688642F7DB9620FFF74CFFF4
:100D1000641C042CEFDB4FF47A70FFF745FF26E0EC
:100D2000002403E02046FFF74DFE641C11480068D4
:100D30008442F7DB4FF4FA70FFF736FF002403E03C
:100D40002046FFF757FE641C0A4800688442F7DB20
:100D500040F2DC50FFF728FF002403E02046FFF7B5
:100D600031FE641C034800688442F7DB00BF69E77A
:100D70000054004004000020000000200C0000206F
:100D8000080000204FF04070E1EE100A70470000AC
:100D9000B00D00080000002010000000C401000891
:100DA000C00D00081000002048070000E001000806
:100DB0000100000002000000B80B0000000000006D
:040000050800018965
:00000001FF
