:020000040800F2
:10000000680700207D020008B9020008BB02000852
:10001000BD020008BF020008C10200080000000085
:10002000000000000000000000000000C302000803
:10003000C502000800000000C702000819110008EE
:10004000CB020008CB020008CB020008CB0200085C
:10005000CB020008CB020008CB020008CB0200084C
:10006000CB020008CB020008CB020008CB0200083C
:10007000CB020008CB020008CB020008CB0200082C
:10008000CB020008CB020008CB020008CB0200081C
:10009000CB020008CB020008CB020008C90B000805
:1000A000CB020008CB020008CB020008CB020008FC
:1000B000CB020008CB020008CB020008CB020008EC
:1000C000CB020008CB020008CB020008CB020008DC
:1000D000CB020008CB020008CB020008CB020008CC
:1000E000CB020008CB020008CB020008CB020008BC
:1000F000CB020008CB020008CB020008CB020008AC
:10010000CB020008CB020008CB020008CB0200089B
:10011000CB020008CB020008CB020008CB0200088B
:10012000CB020008CB020008CB020008CB0200087B
:10013000CB020008CB020008CB020008CB0200086B
:10014000CB020008CB020008CB020008CB0200085B
:10015000CB020008CB020008CB020008CB0200084B
:10016000CB020008CB020008CB020008CB0200083B
:10017000CB020008CB020008CB0200080000000000
:10018000CB020008CB02000800F002F800F04CF8A7
:100190000AA090E8000C82448344AAF10107DA45E2
:1001A00001D100F041F8AFF2090EBAE80F0013F0E8
:1001B000010F18BFFB1A43F001031847841C00000D
:1001C000A41C0000103A24BF78C878C1FAD852079E
:1001D00024BF30C830C144BF04680C6070470000C1
:1001E0000023002400250026103A28BF78C1FBD840
:1001F000520728BF30C148BF0B607047632900F029
:100200009881002070471FB501F0C6FD00F07BF912
:1002100000F038FC04000020002101F0A7FD401C84
:1002200060601FBD10B510BD00F004FA1146FFF765
:10023000EAFF01F037FA00F00DFC03B4FFF7F2FF1C
:1002400003BC00F023FC00000B49D1F800C04A6851
:100250005CF8043B1068184442F8040B8C4528BF36
:10026000A1F1DC0C8A4228BFA1F1DC02C1F800C078
:100270004A6020F000407047FC00002016481749F3
:10028000174B99423CBF50F8042B41F8042BF8D38C
:1002900014494FF000028B4238BF43F8042BFAD3C5
:1002A000DFF84400016841F470010160BFF34F8F33
:1002B000BFF36F8F0D480047FEE7FEE7FEE7FEE75E
:1002C000FEE7FEE7FEE7FEE7FEE7FEE7084809492E
:1002D000094A0A4B70470000701F00080000002008
:1002E000200000206807002088ED00E08901000858
:1002F00068010020680700206803002068030020D0
:100300000FB4044910B503AA029800F01FF910BCFD
:100310005DF814FB180000202DE9F0410E4604465C
:10032000002020622046E168884730B3252805D0A8
:10033000D4E901219047206A401CF2E7E168204699
:1003400000278847050018D0A5F14100192802D8D8
:1003500020354FF400673246294620462760FFF7D4
:100360004DFF40B1012804D0F61D26F007060836DF
:10037000D8E7361DD6E72846DAE7206ABDE8F081DF
:1003800070B50C460546012A05D02878800600D5B0
:10039000EA69002302E0012305E05B1C934202D2DC
:1003A000E05C0028F9D1A869E618C01AA861286A9B
:1003B000184428622846AFF3008004E0D5E9012103
:1003C00014F8010B9047B442F8D32846AFF30080ED
:1003D00070BD00000FB400B589B00BA86A4600904C
:1003E00003480A9900F0C4F809B05DF814FB000056
:1003F0001C0000202DE9FF5F4FF0000899461446CD
:1004000046469169D2E901A7DDF838B001988847DE
:10041000054659EA0B0005D009E0A1690198761C50
:1004200088470546216A284688470028F5D1681C78
:1004300003D05FEACA7005D015E04FF0FF3004B07A
:1004400000F048B82068011D2160D0F800800AE063
:100450005FEACA7001D108F8015BA169761C0198B6
:100460007F1E88470546002F1ADD681C18D0B9F199
:10047000000F0DD0E81705EBD060421120F01F00EF
:1004800059F822102A1A012090400142E0D107E0D9
:10049000BBF1000FDCD12846216A88470028D7D05D
:1004A000E16901988847BBF1000F07D1002E05DDF7
:1004B0005FEACA7002D1002188F80010A068B84233
:1004C00003DDBBF1000F03D017B16FF00100B6E7F9
:1004D0003046B4E730BCBDE8C09F00000B4910B502
:1004E000A1F17C020A4CC2E93712372106E000EB89
:1004F000104342F82130074B00FB03400B1EA1F1D3
:100500000101F4DC10BD0120E8E700009C000020A0
:10051000E119D666CD0D010070477047704710B5E0
:10052000436913B1AFF3008001E0FFF729FF012019
:1005300010BD127800F124010A7000224A700122D5
:10054000EDE711684FF0FF32E9E70000074B70B5A7
:100550000D467B4400F01DF80446284600F066F87E
:1005600010B14FF0FF3070BD204670BDE7100000A5
:10057000034B7B449361034B7B44D36100F022B86F
:10058000B31000006B00000001694A1C026108788A
:10059000704700B58FB0CDE90131002105910549C3
:1005A0007944CDE9031011466846FFF7B5FE0FB058
:1005B00000BD0000E5FFFFFF0268114413780160F1
:1005C00018467047D160054979445161044979441E
:1005D000116200211161114600F05AB8EDFFFFFFD2
:1005E000AD000000704710B54FF0FF34C1688A02BB
:1005F0000FD5036B42689A420BD1014690F8252033
:10060000104600F003FA401C01D1204610BD002026
:1006100010BD11F0C00FF8D1026941689142F4D9C0
:100620000268491E521CC0E90021F0E7007B00F07F
:1006300080007047754600F017FAAE46050069461F
:10064000534620F00700854618B020B5FFF73EFE60
:10065000BDE820404FF000064FF000074FF00008C3
:100660004FF0000B21F00701AC46ACE8C009ACE844
:10067000C009ACE8C009ACE8C0098D46704710B5A8
:10068000044600F0F5F90068005D00F0010010BDBF
:100690002DE9F34F4FF0000A0C4656468DB001206D
:1006A0000C9001F10C000B9062690B9801219047AE
:1006B000051E2DD0252D2CD0216A8847C0B1626936
:1006C0000B9801219047216A88470028F7D1626979
:1006D000411E0B98904700E0761CA1690D98884751
:1006E000216A88470028F7D1E1690D988847DBE740
:1006F000A1690D988847A842074601D1761CD3E727
:10070000E1690D9888477F1C02D1BAF1000F6FD0C4
:100710006CE162690B9800273D46394690472A28CC
:1007200004D162690B98012190470125DFF8D0823E
:1007300062690B9801219047A0F130010A290AD281
:100740004745E5DC07EB870100EB4107303FDFD48D
:1007500045F01005ECE7E90601D46FF000476C287E
:100760000AD04C2814D0682815D06A280DD07428D7
:100770001CD07A281AD01DE062690B98012190479D
:100780006C2802D045F0040514E045F002050DE0A8
:1007900045F020050AE062690B980121904768281E
:1007A00002D045F0080505E045F4006562690B9844
:1007B00001219047C4E9015765283DD019DC58282C
:1007C0007AD00CDC452837D004DC252826D04128F7
:1007D0009ED131E046282FD0472899D12CE05B28C4
:1007E00077D0612828D063287CD0642823D15AE0B0
:1007F000F7E06F2848D008DC66281DD067281BD09A
:10080000692821D06E2816D127E0702845D073289A
:1008100068D0752847D078280DD14DE0A1690D9892
:100820008847252805463FF469AFE1690D98884758
:100830006D1C3FF46AAFD9E00D9923466A466FF00C
:100840000100AFF30080C6E045F0400023464FF0C2
:1008500000026060A80736D43EE0E8077FF447AFA7
:100860002068011D21600068290501D506701BE77D
:10087000290701D5068017E7A90703D5F117C0E9B5
:10088000006111E706600FE745F0400023464FF096
:1008900008026060A80716D41EE040F60E0125EAA3
:1008A0000100606016E045F0400023464FF00A0268
:1008B0006060A80707D40FE045F040006060A8071B
:1008C00008D5234610220D996FF00100AFF3008088
:1008D00081E007E0102223460D996FF00100AFF38D
:1008E000008078E04FF0000963284F46C8464B4629
:1008F000CB4602D05B2807D039E02079C00601D46E
:100900000120A060012732E06269D4F80CB00B9896
:10091000012190475E2807D14FF0010949466269DD
:10092000D4F80CB00B989047216939B900210A46D8
:1009300003AB43F82120491C0829FADBD8B321690D
:1009400049B308F1010862690B98012190475D28BD
:10095000F4D1B9F1000F09D0002003A951F82020EB
:10096000D24341F82020401C0828F7DB03AB206964
:10097000002820794FEA40701ED05B462246CDF811
:100980000080CDE901970D9900286FF0010020DA71
:10099000AFF300801FE0C11703AA00EBD1614B1138
:1009A00021F01F0102EB8302411A136801208840E5
:1009B00003431360C7E719E00D99224600286FF042
:1009C0000100009702DAAFF3008004E0FFF712FDA8
:1009D00001E0AFF3008000280ADA401C06D10C9831
:1009E00020B14FF0FF300FB000F00CB85046FAE7DE
:1009F000E90701D10AF1010A064400200C9053E6F0
:100A0000CCCCCC0C30BCBDE8C08F0000CA68431C05
:100A10000FD00D4B1A420CD1D3070AD081F8250014
:100A20004B680B6300238B6012F0C06F0B6003D028
:100A300004E04FF0FF30704742F00072034B1A4061
:100A4000034B1A43CA60704780200800BFFFDFFFD6
:100A50000010480010B50446AFF300802046BDE802
:100A60001040FFF7EABB0000004870470401002077
:100A700010B500F007F8001D10BD00BFF112000016
:100A800070470000004870472401002001491820E9
:100A9000ABBEFEE7260002004FF0013C50F8042BED
:100AA00051F8043B9A4221D1A2EB0C03934313EA81
:100AB000CC1317D150F8042B51F8043B9A4215D1AE
:100AC000A2EB0C03934313EACC130BD150F8042B85
:100AD00051F8043B9A4209D1A2EB0C03934313EA69
:100AE000CC13DBD04FF00000704700BFD01A01BA22
:100AF000B1FA81F101F0180122FA01F0CB40C1F105
:100B00002001DBB2C0B2C01A2CFA01F3D11A914312
:100B100011EAC311E6D170472948C06C40F00400C7
:100B20002749C8642748006820F4406025490860C8
:100B300024480C30006820F4406022490C310860E1
:100B40000846006840F4806008601E48006820F491
:100B500040501C4908601B480C30006820F440508D
:100B600018490C3108600846006840F4805008605D
:100B70001448006820F440301249086011480C30D5
:100B8000006820F440300F490C31086008460068C6
:100B900040F4803008600B48006820F44020094988
:100BA000086008480C30006820F4402005490C31EA
:100BB00008600846006840F4802008607047000024
:100BC000001002400008004810B50A48006800F410
:100BD000007038B100F052F80648006820F4007048
:100BE000044908600448006840F400700249086045
:100BF00010BD000010080048140401404FF0904060
:100C0000406980F020004FF090414861704700003B
:100C100010B50446012C07D100F026FC00F0CCFBF7
:100C2000064800F0A9FC08E0022C06D100F082FC86
:100C300000F032FC024800F09FFC10BD003801407B
:100C4000004400400348006820F0010001490860AA
:100C500070470000140800480348006840F0010095
:100C60000149086070470000140800480248006805
:100C700000F00100704700001408004803480068B5
:100C800080F0010001490860704700001408004826
:100C90000348006820F00200014908607047000026
:100CA000140800480348006840F002000149086049
:100CB00070470000140800480248006800F0020075
:100CC00070470000140800480348006880F00200E4
:100CD0000149086070470000140800480348006894
:100CE00020F0040001490860704700001408004823
:100CF0000348006840F004000149086070470000A4
:100D0000140800480248006800F004007047000022
:100D1000140800480348006880F004000149086096
:100D200070470000140800480348006820F00800DD
:100D30000149086070470000140800480348006833
:100D400040F008000149086070470000140800489E
:100D50000248006800F004007047000014080048D2
:100D60000348006880F008000149086070470000EF
:100D7000140800484348C06C40F001004149C86471
:100D80000846C06C40F00400C8644FF09040006812
:100D900020F400604FF0904108600846006840F47D
:100DA000806008600846406820F0200048600846DF
:100DB000C06820F44060C8603348006820F002003A
:100DC000314908600846006840F001000860081DCD
:100DD000006820F00100091D08602B480C300068F5
:100DE00020F0030028490C3108602748006820F0F3
:100DF0000800254908600846006840F004000860C3
:100E0000081D006820F00200091D08601E480C3013
:100E1000006820F00C001C490C3108601A4800687A
:100E200020F02000184908600846006840F01000D3
:100E30000860081D006820F00400091D08601248C1
:100E40000C30006820F030000F490C3108600E486B
:100E5000006820F080000C4908600846006840F0F7
:100E600040000860081D006820F00800091D0860A7
:100E700005480C30006820F0C00003490C310860C0
:100E800070470000001002400008004800B502460C
:100E900032B1012A07D0022A08D0032A0CD108E077
:100EA000FFF7D0FE08E0FFF7F3FE05E0FFF716FFBF
:100EB00002E0FFF739FF00BF00BF00BD00B50246EA
:100EC00032B1012A07D0022A08D0032A0CD108E047
:100ED000FFF7C2FE08E0FFF7E5FE05E0FFF708FFB9
:100EE00002E0FFF72BFF00BF00BF00BD00B50146C9
:100EF00031B1012907D0022908D003290CD108E01B
:100F0000FFF7B4FE00BDFFF7D7FEFBE7FFF7FAFEE1
:100F1000F8E7FFF71DFFF5E70020F3E700B502460D
:100F200032B1012A07D0022A08D0032A0CD108E0E6
:100F3000FFF7A4FE08E0FFF7C7FE05E0FFF7EAFEB3
:100F400002E0FFF70DFF00BF00BF00BD2D48C06CE1
:100F500040F002002B49C8642B48006820F47C0054
:100F6000294908600846006840F4A8000860081D88
:100F7000006820F46060091D086023480C30006898
:100F800020F47C0020490C3108601F48006820F0E4
:100F900040601D4908600846006840F00060086035
:100FA0000846006820F0404008600846006840F0AD
:100FB000004008600846406A1449084312494862E4
:100FC000081D006820F40050091D086008460068EC
:100FD00020F400400860081D006840F04060091DD2
:100FE00008600846006840F040400860081D00683E
:100FF00020F04060091D08600846006820F040406D
:10100000086070470010024000040048000050557E
:101010003F48806D40F480403D4988650846806BBC
:1010200040F4804088630846806B20F480408863E9
:101030003848006820F040003649086008460068DB
:1010400020F4806008600846006820F400400860D2
:101050000846006820F4804008600846006820F0D8
:1010600080000860081D006840F48070091D086059
:101070000846006840F4007008600846006840F4C4
:10108000806008600846006820F400600860084638
:10109000006820F010000860081F006820F00200BF
:1010A000091F08600846006820F001000860084633
:1010B000006840F0080008600846006840F0100032
:1010C00008600846006820F02000086008460068B4
:1010D00020F4005008600846006840F004000860F2
:1010E0000846006840F400700860081D006840F081
:1010F0000800091D08600846006840F48050086038
:10110000081F006840F04000091F08607047000099
:10111000001002400038004002480068401C0149AD
:10112000086070471400002010B500204FF0E02147
:10113000086140F2CF70486100208861401E00289D
:101140000DDB00BF00BF00F01F02012191404209EA
:10115000920002F1E022C2F8001100BF00BF00BF00
:101160004FF0FF300121002804DB0A07130E0F4A5D
:10117000135406E00A07140E0D4A00F00F031B1F5C
:10118000D45400BF4FF0E020006940F002004FF05F
:10119000E02108610846006920F004000861084663
:1011A000006940F00100086110BD000000E400E0AB
:1011B00018ED00E07E49896821F003017C4A9160C6
:1011C0001146096821F0F00111601146096841F0EB
:1011D000700111601146096841F008011160114663
:1011E000096841F00101116000BF7149096801F00F
:1011F00002010029F9D06E49096841F480716C4AF6
:10120000116000BF6A49096801F480610029F9D0C2
:101210006749896821F00301654A91601146896830
:1012200041F00101916000BF6149896801F00C0142
:101230000029F9D05F49096821F007015D4A116072
:101240001146096841F0020111605949096841F4E9
:101250008071574A116000BF5549096801F48061E7
:101260000029F9D010205249496821F0F851504A1C
:1012700051601146496841EA0061516011460968B0
:1012800021F08071116000BF4949096801F00071C7
:10129000B1F1007FF8D04649C96821F00301444A02
:1012A000D1601146C96841F00201D1601146C96898
:1012B00021F4FE4141F4A051D1601146C96821F0EA
:1012C000700141F01001D1601146C96821F0C06180
:1012D000D1601146C96841F08071D160114609683A
:1012E00041F08071116000BF3149096801F000715F
:1012F0000029F9D02E49896821F003012C4A916018
:101300001146896841F00301916000BF284989684E
:1013100001F00C010C29F9D12549896821F0F0016F
:10132000234A91601146896821F4E0619160114679
:10133000896821F4605191601146096821F080614B
:10134000116000BF1A49096801F08061B1F1806F36
:10135000F8D01749096921F4FE41154A1161114677
:10136000096941F4C05111611146096941F4003124
:1013700011611146096941F4803111611146096812
:1013800041F08061116000BF0949096801F0806186
:101390000029F9D006498831096821F44001044A3E
:1013A000C2F888101146096E41F4001111667047A9
:1013B00000100240002002402948C06C40F00200AA
:1013C0002749C8642748006820F440502549086030
:1013D0000846006840F4005008600846006820F4A1
:1013E000404008600846006840F4004008601D481E
:1013F0002030006820F07F401A49203108600846FC
:10140000006840F0EE40086016480830006840F47C
:1014100040501449083108600846006840F44040D4
:101420000860081F006820F04000091F0860084697
:10143000006820F0800008600A480C30006820F442
:10144000704008490C3108600846006840F480503C
:1014500008600846006840F480400860704700005B
:1014600000100240000400480A48006E40F480402A
:101470000849086607488830006820F00300C1F872
:1014800088000846D0F8880040F00100C1F88800C4
:1014900070470000001002402548C06C40F0010079
:1014A0002349C8644FF09040006820F030004FF0AE
:1014B000904108600846006840F020000860084637
:1014C000006820F0C00008600846006840F0800016
:1014D00008600846006A20F47F4008620846006AF7
:1014E00040F4EE4008620846806840F030008860B2
:1014F0000846806840F0C00088600846406820F0D8
:10150000040048600846406820F00800486008462B
:10151000C06820F0F000C8600846C06840F01000C5
:10152000C8600846C06840F04000C86070470000CE
:10153000001002400A48806D40F400300849886578
:1015400007488830006820F00C00C1F88800084681
:10155000D0F8880040F00400C1F88800704700000F
:1015600000100240642242430723B2FBF3F100BFA4
:101570004A1E111EFCD17047016821F00101016073
:10158000016821F010210160016821F4004101602F
:10159000416821F440514160C1686FF30F01C1609F
:1015A000C16842F28D021143C160016841F00C0133
:1015B0000160016841F0010101607047014600BF10
:1015C000C86900F020000028FAD0888CC0B27047AB
:1015D000F0B504460E46174600250CE000BFE06952
:1015E00000F080000028FAD0705D20854FF49670DE
:1015F000FFF7B8FF6D1CBD42F0D300BFE06900F0FB
:1016000040000028FAD0E06920F04000E061F0BD21
:10161000044A116800BF034A1268521A8242FAD97A
:10162000704700001400002070B505460248FFF71F
:10163000C5FF0446204670BD0038014038B5044659
:101640000D46E0B20090012269460248FFF7C0FF54
:10165000204638BD00380140014631B101290AD089
:1016600002290ED0032918D111E00D48006801228B
:1016700022EA501070470A480068012222EA9010BE
:10168000F8E707480068012222EA1020F2E7044840
:101690000068012222EA5020ECE70020EAE700007F
:1016A000100800481CB5FFF785FDFFF73DFDFFF76B
:1016B00061FBFFF731FA0120FFF7AAFAFFF746FCBA
:1016C000FFF7A6FC20200090C8A0FEF719FECDA0D1
:1016D000FEF716FED9A0FEF713FE6946E5A0FEF759
:1016E00079FE9DF80000682803D09DF80000482886
:1016F00006D10420E0490860E0A0FEF701FE23E0E7
:101700009DF800006D2803D09DF800004D2806D1FB
:101710000320D9490860E2A0FEF7F2FD14E09DF82D
:1017200000006C2803D09DF800004C2806D1012051
:10173000D1490860E4A0FEF7E3FD05E0EBA0FEF769
:10174000DFFD0120CC490860F0A0FEF7D9FD694615
:10175000C8A0FEF73FFE9DF80000682803D09DF862
:101760000000482807D140F6B830F3490860F3A0DC
:10177000FEF7C6FD26E09DF800006D2803D09DF819
:1017800000004D2807D140F2DC50EB490860F3A07F
:10179000FEF7B6FD16E09DF800006C2803D09DF81A
:1017A00000004C2807D14FF4FA70E3490860F4A018
:1017B000FEF7A6FD06E0CDA0FEF7A2FD40F2DC504C
:1017C000DD490860F648FEF79BFD6946A9A0FEF7D3
:1017D00001FE9DF80000682803D09DF8000048280D
:1017E00007D140F2DC50EF490860EFA0FEF788FD1A
:1017F00025E09DF800006D2803D09DF800004D28DD
:1018000007D14FF4FA70E7490860EFA0FEF778FDC2
:1018100015E09DF800006C2803D09DF800004C28CE
:1018200006D16420DF490860F0A0FEF769FD06E0FC
:10183000AEA0FEF765FD4FF4FA70DA490860F34890
:10184000FEF75EFD69468BA0FEF7C4FD9DF8000023
:10185000682803D09DF80000482807D141F288305D
:10186000EB490860EBA0FEF74BFD26E09DF8000079
:101870006D2803D09DF800004D2807D140F6B83000
:10188000E3490860EAA0FEF73BFD16E09DF8000082
:101890006C2803D09DF800004C2807D14FF47A70D3
:1018A000DB490860EAA0FEF72BFD06E08FA0FEF7FB
:1018B00027FD40F6B830D6490860ECA0FEF720FDC1
:1018C0004FE201A96BA0FEF785FD01A9ECA0FEF790
:1018D00017FD9DF80400792803D09DF804005928CD
:1018E00005D1EAA0FEF70CFDFFF788F910E09DF89E
:1018F00004006E2803D09DF804004E2805D1ECA00A
:10190000FEF7FEFCFFF77AF902E0F2A0FEF7F8FC22
:10191000002403E02046FFF7B9FA641CFB48006886
:101920008442F7DB9F480068FFF772FE5248056863
:101930000FE0FEF789FCF549096890FBF1F201FB25
:1019400012042046FFF7D2FA18B96D1E2046FFF7A1
:10195000B5FA002DEDD1EE4807681BE0002407E042
:101960002046FFF779FE10B12046FFF78FFA641C7E
:10197000E64800688442F3DB0025002404E02046AA
:10198000FFF7B4FA0543641CE04800688442F6DBC4
:1019900005B907E0DE480068C01B9D490968884218
:1019A000DCD3B7E1002403E02046FFF76FFA641CA4
:1019B000D64800688442F7DB6420FFF729FE002444
:1019C0000DE0002603E03046FFF7A8FA761CCF486A
:1019D00000688642F7DB9620FFF71AFE641C042C91
:1019E000EFDB4FF47A70FFF713FEBAE15365742012
:1019F00067616D6520706172616D65746572730AEF
:101A000000000000456E7465722027482720666F2D
:101A10007220686967682C20274D2720666F722026
:101A20006D656469756D20616E6420274C272066A2
:101A30006F72206C6F770A0A0000000053657420F3
:101A4000746865206E756D626572206F66206275C0
:101A50007474756E732070657220726F756E642079
:101A60007468617420617265206C69742075703AC5
:101A70002000000025630000000000200A4E756D64
:101A8000626572206F6620627574746F6E73207762
:101A900061732073657420746F20486967680A0059
:101AA0000A4E756D626572206F6620627574746F80
:101AB0006E73207761732073657420746F204D6599
:101AC0006469756D0A0000000A4E756D62657220CA
:101AD0006F6620627574746F6E7320776173207304
:101AE000657420746F204C6F770A00000A496E7687
:101AF000616C696420696E707574207573696E67B6
:101B00002064656661756C740A0000000A53657490
:101B100020686F77206C6F6E67206C6967687473DC
:101B20002073746179206F6E206166746572206124
:101B3000206C6F73733A2000080000200A4C6F730A
:101B4000652050656E616C747920776173207365D0
:101B50007420746F20486967680A00000A4C6F732C
:101B6000652050656E616C747920776173207365B0
:101B70007420746F204D656469756D0A0000000063
:101B80000A4C6F73652050656E616C7479207761C3
:101B9000732073657420746F204C6F770A00000007
:101BA000F41D00080C0000200A526F756E6420536B
:101BB000746172747570207761732073657420741A
:101BC0006F20486967680A000A526F756E64205377
:101BD00074617274757020776173207365742074FA
:101BE0006F204D656469756D0A0000000A526F75BB
:101BF0006E64205374617274757020776173207302
:101C0000657420746F204C6F770A0000A41D0008D3
:101C1000100000200A4475726174696F6E2077614C
:101C2000732073657420746F20486967680A000028
:101C30000A4475726174696F6E20776173207365F1
:101C40007420746F204D656469756D0A0000000092
:101C50000A4475726174696F6E20776173207365D1
:101C60007420746F204C6F770A0000000A0A4761E5
:101C70006D65206973207374617274696E670A0000
:101C80005265636965766564202563005468652044
:101C9000677265656E204C454420686173206265FB
:101CA000656E207475726E6564206F6E0A000000A8
:101CB00054686520677265656E204C4544206861F4
:101CC00073206265656E207475726E6564206F6640
:101CD000660A0000556E7265636F676E697A6564A7
:101CE00020636F6D6D616E642C20706C656173652F
:101CF00020656E74657220612076616C6964206372
:101D00006F6D6D616E642E0A0000000004000020FB
:101D100014000020002403E02046FFF7B7F8641CFD
:101D2000104800688442F7DB4FF4FA70FFF770FC4C
:101D3000002403E02046FFF7C1F8641C094800684E
:101D40008442F7DB08480068FFF762FC002403E0E8
:101D50002046FFF79BF8641C024800688442F7DBCA
:101D600000BFAEE5040000200800002010B50029E7
:101D70000AD00878002807D005487844FEF78CFE82
:101D8000002801D0002010BD0248784410BD00009A
:101D9000E6000000DE0000004FF04070E1EE100AA7
:101DA000704700000A53657420686F77206C6F6E6F
:101DB0006720796F75206861766520746F20707276
:101DC00065737320616C6C2074686520627574742F
:101DD0006F6E73206265666F726520796F75206C17
:101DE0006F6F73652074686520726F756E643A203A
:101DF000000000000A5365742074696D65206465F5
:101E00006C61792061742074686520626567696E11
:101E10006E696E67206F66206561636820726F75FA
:101E20006E6420666F72206C69676874696E6720E3
:101E3000757020627574746F6E733A200000000034
:101E4000701F00080000002020000000C4010008EE
:101E5000901F00082000002048070000E001000853
:101E60001001000043000000F8FFFFFF0040404069
:101E7000404040404040414141414140404040405D
:101E80004040404040404040404040404005020209
:101E900002020202020202020202020202202020C8
:101EA0002020202020202002020202020202909024
:101EB0009090909010101010101010101010101022
:101EC0001010101010101010020202020202888876
:101ED0008888888808080808080808080808080882
:101EE000080808080808080802020202400000006A
:101EF00000000000000000000000000000000000E2
:101F000000000000000000000000000000000000D1
:101F100000000000000000000000000000000000C1
:101F200000000000000000000000000000000000B1
:101F300000000000000000000000000000000000A1
:101F40000000000000000000000000000000000091
:101F50000000000000000000000000000000000081
:101F60000000000000000000000000000000000071
:101F70000100000002000000DC050000F401000088
:101F8000B80B00000000000000000000000000008E
:040000050800018965
:00000001FF
