:020000040800F2
:1000000090170020B1020008ED020008EF0200087E
:10001000F1020008F3020008F502000800000000E9
:10002000000000000000000000000000F7020008CF
:10003000F902000800000000FB0200082D1400086F
:10004000FF020008FF020008FF020008FF0200088C
:10005000FF020008FF020008FF020008FF0200087C
:10006000FF020008FF020008FF020008FF0200086C
:10007000FF020008FF020008FF020008FF0200085C
:10008000FF020008FF020008FF020008FF0200084C
:10009000FF020008FF020008FF020008FF0200083C
:1000A000FF020008FF020008FF020008FF0200082C
:1000B000FF020008FF020008FF020008FF0200081C
:1000C000FF020008FF020008FF020008FF0200080C
:1000D000FF020008FF020008FF020008FF020008FC
:1000E000FF020008FF020008FF020008FF020008EC
:1000F000FF020008FF020008FF020008FF020008DC
:10010000FF020008FF020008FF020008FF020008CB
:10011000FF020008FF020008FF020008FF020008BB
:10012000FF020008FF020008FF020008FF020008AB
:10013000FF020008FF020008FF020008FF0200089B
:10014000FF020008FF020008FF020008FF0200088B
:10015000FF020008FF020008FF020008FF0200087B
:10016000FF020008FF020008FF020008FF0200086B
:10017000FF020008FF020008FF0200080000000064
:10018000FF020008FF02000800F002F800F067F824
:100190000AA090E8000C82448344AAF10107DA45E2
:1001A00001D100F05CF8AFF2090EBAE80F0013F0CD
:1001B000010F18BFFB1A43F001031847C4220000C7
:1001C000E42200000A444FF0000C10F8013B13F049
:1001D000070408BF10F8014B1D1108BF10F8015BA0
:1001E000641E05D010F8016B641E01F8016BF9D193
:1001F00013F0080F1EBF10F8014BAD1C0C1B09D1EA
:100200006D1E58BF01F801CBFAD505E014F8016B5B
:1002100001F8016B6D1EF9D59142D6D370470000ED
:100220000023002400250026103A28BF78C1FBD8FF
:10023000520728BF30C148BF0B6070471FB502F09E
:10024000BFF800F01CF900F0A7FC0400002000211A
:1002500002F0A0F8401C60601FBD10B510BD00F09A
:100260002BFA1146FFF7EAFF01F0D0FE00F048FC40
:1002700003B4FFF7F2FF03BC00F0BAF90B49D1F861
:1002800000C04A685CF8043B1068184442F8040B4C
:100290008C4528BFA1F1DC0C8A4228BFA1F1DC0209
:1002A000C1F800C04A6020F00040704724110020CF
:1002B00016481749174B99423CBF50F8042B41F898
:1002C000042BF8D314494FF000028B4238BF43F897
:1002D000042BFAD3DFF84400016841F47001016097
:1002E000BFF34F8FBFF36F8F0D480047FEE7FEE768
:1002F000FEE7FEE7FEE7FEE7FEE7FEE7FEE7FEE7D6
:1003000008480949094A0A4B70470000B02500080F
:1003100000000020381000209017002088ED00E039
:1003200089010008901100209017002090130020F0
:10033000901300200FB4044910B503AA029800F0EE
:100340001DF910BC5DF814FB301000200FB400B58F
:1003500089B00BA86A46009003480A9900F020F97A
:1003600009B05DF814FB0000341000202DE9FF5F98
:100370004FF000089946144646469169D2E901A714
:10038000DDF838B001988847054659EA0B0005D0DA
:1003900009E0A1690198761C88470546216A28462C
:1003A00088470028F5D1681C03D05FEACA7005D0E1
:1003B00015E04FF0FF3004B000F048B82068011D90
:1003C0002160D0F800800AE05FEACA7001D108F825
:1003D000015BA169761C01987F1E88470546002FA6
:1003E0001ADD681C18D0B9F1000F0DD0E81705EB25
:1003F000D060421120F01F0059F822102A1A012063
:1004000090400142E0D107E0BBF1000FDCD128466B
:10041000216A88470028D7D0E16901988847BBF155
:10042000000F07D1002E05DD5FEACA7002D100215E
:1004300088F80010A068B84203DDBBF1000F03D0BC
:1004400017B16FF00100B6E73046B4E730BCBDE845
:10045000C09F00000B4910B5A1F17C020A4CC2E913
:100460003712372106E000EB104342F82130074BEA
:1004700000FB03400B1EA1F10101F4DC10BD0120C3
:10048000E8E70000C4100020E119D666CD0D010098
:100490000EB5054614460E4613A000F098F82846FF
:1004A00000F095F816A000F092F8304600F08FF8B2
:1004B00015A000F08CF800218DF80B100A210DF129
:1004C0000A008DF80A1008E094FBF1F201FB1242D9
:1004D00094FBF1F4303200F8012D002CF4DC00F034
:1004E00076F800F069F800002A2A2A206173736503
:1004F0007274696F6E206661696C65643A200000F1
:100500002C2066696C6520002C206C696E652000CB
:1005100010B5203AC0F00B80B1E81850203AA0E89E
:100520001850B1E81850A0E81850BFF4F5AF5FEAD2
:10053000027C24BFB1E81850A0E8185044BF18C985
:1005400018C0BDE810405FEA827C24BF51F8043B2C
:1005500040F8043B08BF7047D20728BF31F8023B80
:1005600048BF11F8012B28BF20F8023B48BF00F814
:10057000012B70477047704770470000074B70B5FC
:100580000D467B4400F03FF80446284600F088F80A
:1005900010B14FF0FF3070BD204670BD8F130000CA
:1005A000034B7B449361034B7B44D36100F044B81D
:1005B0005B130000AF00000010B5002000F074F8DD
:1005C000FFF74BFEBDE81040012000F011B810B558
:1005D000044602E0641C00F004F820780028F9D1F9
:1005E00010BD08B569468DF800000320ABBE08BDFC
:1005F00001491820ABBEFEE72600020001694A1C33
:1006000002610878704700B58FB0CDE90131002153
:10061000059105497944CDE903101146684600F07B
:1006200079F80FB000BD0000E5FFFFFF026811443C
:100630001378016018467047D160054979445161CB
:1006400004497944116200211161114600F076B825
:10065000EDFFFFFFBD000000704710B54FF0FF3405
:10066000C1688A020FD5036B42689A420BD10146DA
:1006700090F82520104600F01FFA401C01D12046BA
:1006800010BD002010BD11F0C00FF8D10269416803
:100690009142F4D90268491E521CC0E90021F0E7DA
:1006A000007B00F08000704710B500F037FABDE81D
:1006B000104000F02EBA7047754600F047FAAE467B
:1006C00005006946534620F00700854618B020B55E
:1006D000FFF716FEBDE820404FF000064FF0000780
:1006E0004FF000084FF0000B21F00701AC46ACE8DA
:1006F000C009ACE8C009ACE8C009ACE8C0098D4647
:10070000704710B5044600F025FA0068005D00F05F
:10071000010010BD2DE9F04106460024D6E9017024
:10072000F5688046304603E04146B847641C3046D1
:10073000A8470028F8D12046BDE8F0812DE9F34F05
:100740004FF0000A0C4656468DB001200C9001F186
:100750000C000B9062690B9801219047051E2DD06B
:10076000252D2CD0216A8847C0B162690B980121E0
:100770009047216A88470028F7D16269411E0B988B
:10078000904700E0761CA1690D988847216A884748
:100790000028F7D1E1690D988847DBE7A1690D983A
:1007A0008847A842074601D1761CD3E7E1690D9836
:1007B00088477F1C02D1BAF1000F6FD06CE16269EB
:1007C0000B9800273D46394690472A2804D1626994
:1007D0000B98012190470125DFF8D08262690B98C0
:1007E00001219047A0F130010A290AD24745E5DCF2
:1007F00007EB870100EB4107303FDFD445F01005E0
:10080000ECE7E90601D46FF000476C280AD04C28C9
:1008100014D0682815D06A280DD074281CD07A28E6
:100820001AD01DE062690B98012190476C2802D014
:1008300045F0040514E045F002050DE045F0200503
:100840000AE062690B9801219047682802D045F0C0
:10085000080505E045F4006562690B9801219047A1
:10086000C4E9015765283DD019DC58287AD00CDC42
:10087000452837D004DC252826D041289ED131E0F8
:1008800046282FD0472899D12CE05B2877D06128C3
:1008900028D063287CD0642823D15AE0F7E06F2861
:1008A00048D008DC66281DD067281BD0692821D0D5
:1008B0006E2816D127E0702845D0732868D0752897
:1008C00047D078280DD14DE0A1690D98884725289B
:1008D00005463FF469AFE1690D9888476D1C3FF408
:1008E0006AAFD9E00D9923466A466FF00100AFF375
:1008F0000080C6E045F0400023464FF000026060F3
:10090000A80736D43EE0E8077FF447AF2068011D12
:1009100021600068290501D506701BE7290701D56C
:10092000068017E7A90703D5F117C0E9006111E7B1
:1009300006600FE745F0400023464FF00802606074
:10094000A80716D41EE040F60E0125EA01006060FB
:1009500016E045F0400023464FF00A026060A80709
:1009600007D40FE045F040006060A80708D5234693
:1009700010220D996FF00100AFF3008081E007E0D5
:10098000102223460D996FF00100AFF3008078E04C
:100990004FF0000963284F46C8464B46CB4602D06D
:1009A0005B2807D039E02079C00601D40120A0607F
:1009B000012732E06269D4F80CB00B98012190470E
:1009C0005E2807D14FF0010949466269D4F80CB09E
:1009D0000B989047216939B900210A4603AB43F8C7
:1009E0002120491C0829FADBD8B3216949B308F151
:1009F000010862690B98012190475D28F4D1B9F193
:100A0000000F09D0002003A951F82020D24341F85B
:100A10002020401C0828F7DB03AB20690028207940
:100A20004FEA40701ED05B462246CDF80080CDE9EB
:100A300001970D9900286FF0010020DAAFF30080D4
:100A40001FE0C11703AA00EBD1614B1121F01F0178
:100A500002EB8302411A13680120884003431360AC
:100A6000C7E719E00D99224600286FF001000097B2
:100A700002DAAFF3008004E0FFF778FC01E0AFF3A7
:100A8000008000280ADA401C06D10C9820B14FF0F3
:100A9000FF300FB000F00CB85046FAE7E90701D17B
:100AA0000AF1010A064400200C9053E6CCCCCC0C91
:100AB00030BCBDE8C08F0000CA68431C0FD00D4B8E
:100AC0001A420CD1D3070AD081F825004B680B637A
:100AD00000238B6012F0C06F0B6003D004E04FF076
:100AE000FF30704742F00072034B1A40034B1A4329
:100AF000CA60704780200800BFFFDFFF0010480079
:100B000010B50446AFF300802046BDE81040FFF763
:100B1000AFBB002801D0FFF76BBD704710B50021B7
:100B200002A000F01FF8012010BD0000534947410A
:100B30004252543A2041626E6F726D616C2074654E
:100B4000726D696E6174696F6E00000000487047D5
:100B50002C11002010B500F01FF8001D10BD00BFC3
:100B60003518000070B505460C460A2000E06D1CE3
:100B7000FFF737FD35B128780028F8D102E0641C72
:100B8000FFF72FFD14B120780028F8D1BDE87040A0
:100B90000A20FFF726BD0000004870474C110020D6
:100BA0004FF0013C50F8042B51F8043B9A4221D1FC
:100BB000A2EB0C03934313EACC1317D150F8042B88
:100BC00051F8043B9A4215D1A2EB0C03934313EA6C
:100BD000CC130BD150F8042B51F8043B9A4209D1A5
:100BE000A2EB0C03934313EACC13DBD04FF00000CD
:100BF000704700BFD01A01BAB1FA81F101F01801B3
:100C000022FA01F0CB40C1F12001DBB2C0B2C01A20
:100C10002CFA01F3D11A914311EAC311E6D17047BE
:100C20002948C06C40F004002749C8642748006880
:100C300020F440602549086024480C30006820F406
:100C4000406022490C3108600846006840F480602A
:100C500008601E48006820F440501C4908601B488A
:100C60000C30006820F4405018490C3108600846E8
:100C7000006840F4805008601448006820F4403058
:100C80001249086011480C30006820F440300F49C8
:100C90000C3108600846006840F4803008600B485A
:100CA000006820F440200949086008480C300068BA
:100CB00020F4402005490C3108600846006840F4E3
:100CC00080200860704700000010024000080048C3
:100CD00010B5002405E001220021044800F086FB45
:100CE000641CB4F5806FF6DB10BD000000380040D6
:100CF00070B504460D46144804600DB1022000E0B2
:100D0000102006464FF09040406920F012004FF04E
:100D10009041486112E04FF09040406930434FF0FD
:100D200090414861012000F0CBFD4FF090404069B8
:100D3000B0434FF09041486100F008F80248006865
:100D40000028E8D170BD00002C1000204FF090402A
:100D5000406980F020004FF09041486170470000EA
:100D600000B50346012B07D100F014FC00F0BAFBDC
:100D7000064800F059FD08E0022B06D100F070FC97
:100D800000F020FC024800F04FFD00BD003801409B
:100D9000004400400348006820F001000149086059
:100DA00070470000140800480348006840F0010044
:100DB00001490860704700001408004802480068B4
:100DC00000F0010070470000140800480348006864
:100DD00080F00100014908607047000014080048D5
:100DE0000348006820F002000149086070470000D5
:100DF000140800480348006840F0020001490860F8
:100E000070470000140800480248006800F0020023
:100E100070470000140800480348006880F0020092
:100E20000149086070470000140800480348006842
:100E300020F00400014908607047000014080048D1
:100E40000348006840F00400014908607047000052
:100E5000140800480248006800F0040070470000D1
:100E6000140800480348006880F004000149086045
:100E700070470000140800480348006820F008008C
:100E800001490860704700001408004803480068E2
:100E900040F008000149086070470000140800484D
:100EA0000248006800F0080070470000140800487D
:100EB0000348006880F0080001490860704700009E
:100EC000140800484348C06C40F001004149C86420
:100ED0000846C06C40F00400C8644FF090400068C1
:100EE00020F400604FF0904108600846006840F42C
:100EF000806008600846406820F02000486008468E
:100F0000C06820F44060C8603348006820F00200E8
:100F1000314908600846006840F001000860081D7B
:100F2000006820F00100091D08602B480C300068A3
:100F300020F0030028490C3108602748006820F0A1
:100F40000800254908600846006840F00400086071
:100F5000081D006820F00200091D08601E480C30C2
:100F6000006820F00C001C490C3108601A48006829
:100F700020F02000184908600846006840F0100082
:100F80000860081D006820F00400091D0860124870
:100F90000C30006820F030000F490C3108600E481A
:100FA000006820F080000C4908600846006840F0A6
:100FB00040000860081D006820F00800091D086056
:100FC00005480C30006820F0C00003490C3108606F
:100FD00070470000001002400008004800B50246BB
:100FE00032B1012A07D0022A08D0032A0CD108E026
:100FF000FFF7D0FE08E0FFF7F3FE05E0FFF716FF6E
:1010000002E0FFF739FF00BF00BF00BD00B5024698
:1010100032B1012A07D0022A08D0032A0CD108E0F5
:10102000FFF7C2FE08E0FFF7E5FE05E0FFF708FF67
:1010300002E0FFF72BFF00BF00BF00BD10B5044664
:1010400034B1012C07D0022C08D0032C0CD108E0BD
:10105000FFF7B4FE10BDFFF7D7FEFBE7FFF7FAFE80
:10106000F8E7FFF71DFFF5E7542202A103A0FFF701
:101070000FFA00004C45442E6300000030000000D1
:1010800000B5024632B1012A07D0022A08D0032A4D
:101090000CD108E0FFF79AFE08E0FFF7BDFE05E07F
:1010A000FFF7E0FE02E0FFF703FF00BF00BF00BD57
:1010B00010B504460C48046010E00C48006840F08D
:1010C00001000A490860012000F0FAFB07480068A7
:1010D00020F0010005490860FFF738FE024800686B
:1010E0000028EAD110BD00002C1000201404004894
:1010F0003448C06C40F002003249C8640846C06CF5
:1011000040F00100C8643048006820F003002E4918
:1011100008600846006840F0010008604FF0904009
:10112000006820F440704FF0904108600846006865
:1011300040F4807008600846006820F00C000860E9
:101140000846006840F0040008601F48001D006861
:1011500020F001001C49091D08604FF090404068D4
:1011600020F010004FF0904148600846406820F0A1
:101170000200486014480C30006820F00300124957
:101180000C31086010481430006820F001000E494E
:10119000143108604FF09040C06820F440704FF068
:1011A0009041C8600846406920F010004861084638
:1011B000C06820F00C00C8600846406920F00200BA
:1011C00048617047001002400004004810B51548FF
:1011D000C06C40F480201349C8641248883000680D
:1011E00040F04060C1F888000846C06A40F48020A2
:1011F000C8620846C06A20F48020C8620A480068B5
:1012000040F004000849086000BF0748001D00685E
:1012100000F001000028F8D0034908310868FFF702
:1012200019F910BD00100240000806502948C06C92
:1012300040F002002749C8640846C06C40F0040032
:10124000C8642548006820F07C702349086008467F
:10125000006840F0A87008602048006820F04060F6
:101260001E4908600846006840F0006008600846B3
:10127000006820F0404008600846006840F00040E8
:1012800008600846406A1649084314494862081D28
:10129000006820F40050091D08600846006820F42A
:1012A00000400860081D006840F04060091D0860AB
:1012B0000846006840F040400860081D006820F0C3
:1012C0004060091D08600846006820F04040086042
:1012D0007047000000100240000800480004004869
:1012E000000050553F48806D40F480403D4988657E
:1012F0000846806B40F4804088630846806B20F489
:10130000804088633848006820F040003649086013
:101310000846006820F4806008600846006820F4F1
:10132000004008600846006820F4804008600846D5
:10133000006820F080000860081D006840F480709C
:10134000091D08600846006840F4007008600846FF
:10135000006840F4806008600846006820F400607F
:1013600008600846006820F010000860081F006848
:1013700020F00200091F08600846006820F0010004
:1013800008600846006840F00800086008460068E9
:1013900040F0100008600846006820F02000086057
:1013A0000846006820F4005008600846006840F0D5
:1013B000040008600846006840F400700860081DDA
:1013C000006840F00800091D08600846006840F405
:1013D00080500860081F006840F04000091F086046
:1013E00070470000001002400038004030B503464E
:1013F0000D461446002000F097FF204600F0A6FF9F
:1014000000BF0948006800F002000028F9D01D73F1
:1014100000BF0548006800F080000028F9D10120D5
:1014200000F082FF30BD0000083800400648006828
:10143000401C054908600548006820B10348006861
:10144000401E024908607047281000202C10002020
:1014500010B500204FF0E021086142F20F704861A2
:1014600000208861401E00280DDB00BF00BF00F097
:101470001F02012191404209920002F1E022C2F8CC
:10148000001100BF00BF00BF4FF0FF300121002856
:1014900004DB0A07130E0F4A135406E00A07140E62
:1014A0000D4A00F00F031B1FD45400BF4FF0E02083
:1014B000006940F002004FF0E02108610846006931
:1014C00020F0040008610846006940F0010008614E
:1014D00010BD000000E400E018ED00E000B500F0F1
:1014E000D7F800BD2948C06C40F002002749C86405
:1014F0002748006820F440502549086008460068E5
:1015000040F4005008600846006820F4404008603D
:101510000846006840F4004008601D48203000681C
:1015200020F07F401A49203108600846006840F0EA
:10153000EE40086016480830006840F440501449F6
:10154000083108600846006840F440400860081F01
:10155000006820F04000091F08600846006820F07D
:10156000800008600A480C30006820F47040084988
:101570000C3108600846006840F480500860084656
:10158000006840F48040086070470000001002408E
:10159000000400480A48006E40F48040084908668C
:1015A00007488830006820F00300C1F8880008462A
:1015B000D0F8880040F00100C1F8880070470000B2
:1015C000001002402548C06C40F001002349C86467
:1015D0004FF09040006820F030004FF090410860DC
:1015E0000846006840F0200008600846006820F0C7
:1015F000C00008600846006840F0800008600846A7
:10160000006A20F47F4008620846006A40F4EE4019
:1016100008620846806840F03000886008468068AC
:1016200040F0C00088600846406820F00400486030
:101630000846406820F0080048600846C06820F06E
:10164000F000C8600846C06840F01000C860084656
:10165000C06840F04000C8607047000000100240C1
:101660000A48806D40F40030084988650748883092
:10167000006820F00C00C1F888000846D0F8880007
:1016800040F00400C1F888007047000000100240DC
:101690005E49096821F007015C4A1160114609683A
:1016A00041F0020111605A49096841F48071584AB9
:1016B000116000BF5649096801F480610029F9D022
:1016C00010205349496821F0F851514A51601146A0
:1016D000496841EA006151601146096821F0807152
:1016E000116000BF4A49096801F00071B1F1007F43
:1016F000F8D04749C96821F00301454AD160114635
:10170000C96841F00201D1601146C96821F4FE4167
:1017100041F4A051D1601146C96821F0700141F037
:101720001001D1601146C96821F0C061D160114635
:10173000C96841F08071D1601146096841F080713B
:10174000116000BF3249096801F000710029F9D029
:101750002F49896821F003012D4A9160114689685B
:1017600041F00301916000BF2949896801F00C0133
:101770000C29F9D12649896821F0F001244A9160A9
:101780001146896821F4E06191601146896821F46D
:10179000605191601146096821F08061116000BFBD
:1017A0001B49096801F08061B1F1806FF8D01849D8
:1017B000096921F4FE41164A11611146096941F493
:1017C000C05111611146096941F40031116111469E
:1017D000096941F4803111611146096841F0806165
:1017E000116000BF0A49096801F080610029F9D041
:1017F00007498831096821F44001054AC2F8881078
:101800001146096E41F40011116670470020024034
:1018100000100240642242430723B2FBF3F100BFF1
:101820004A1E111EFCD17047016821F001010160C0
:10183000016821F010210160016821F4004101607C
:10184000416821F440514160C1686FF30F01C160EC
:10185000C16842F28D021143C160016841F00C0180
:101860000160016841F0010101607047014600BF5D
:10187000C86900F020000028FAD0888CC0B27047F8
:10188000F0B504460E46174600250CE000BFE0699F
:1018900000F080000028FAD0705D20854FF496702B
:1018A000FFF7B8FF6D1CBD42F0D300BFE06900F048
:1018B00040000028FAD0E06920F04000E061F0BD6F
:1018C000054A116800BF044A1268521A8242FAD3CC
:1018D0000022014B1A6070472810002070B50546A1
:1018E000FFF7F6F9002405E0295D01220348FFF720
:1018F0007DFD641CB4F5806FF6DB70BD00380040E0
:1019000070B505460248FFF7B1FF0446204670BD9A
:101910000038014038B504460D46E0B2009001227F
:1019200069460248FFF7ACFF204638BD0038014049
:1019300008B50120FFF714FA2020009097A0FEF7C9
:10194000F9FC9CA0FEF7F6FCA8A0FEF7F3FC6946A4
:10195000B6A0FEF7FBFC9DF8000068280CD006DC62
:1019600048280AD04C2818D04D281DD10DE06C28ED
:1019700012D06D2818D107E000BF0420AC490860E0
:10198000ACA0FEF7D7FC16E000BF0220A849086013
:10199000B1A0FEF7CFFC0EE000BF0120A449086013
:1019A000B6A0FEF7C7FC06E00120A1490860BCA074
:1019B000FEF7C0FC00BF00BFBFA0FEF7BBFC69463E
:1019C0009AA0FEF7C3FC9DF8000068280CD006DC46
:1019D00048280AD04C281AD04D2820D10EE06C2877
:1019E00014D06D281BD108E000BF40F6B830C149C3
:1019F0000860C1A0FEF79EFC19E000BF40F2DC5079
:101A0000BC490860C4A0FEF795FC10E000BF4FF48D
:101A1000FA70B8490860C8A0FEF78CFC07E040F2F5
:101A2000DC50B4490860CCA0FEF784FC00BF00BFC6
:101A3000D048FEF77FFC69467CA0FEF787FC9DF846
:101A4000000068280CD006DC48280AD04C281AD0A0
:101A50004D281FD10EE06C2814D06D281AD108E053
:101A600000BF40F2DC50C4490860C4A0FEF762FC2D
:101A700018E000BF4FF4FA70BF490860C7A0FEF736
:101A800059FC0FE000BF6420BB490860CBA0FEF703
:101A900051FC07E04FF4FA70B7490860CFA0FEF799
:101AA00049FC00BF00BFD448FEF744FC69465FA074
:101AB000FEF74CFC9DF8000068280CD006DC482896
:101AC0000AD04C2819D04D281FD10DE06C2813D016
:101AD0006D281AD107E000BFC848C9490860C9A0ED
:101AE000FEF728FC18E000BF43F69820C4490860C0
:101AF000CBA0FEF71FFC0FE000BF41F28830C049C9
:101B00000860CEA0FEF716FC06E0BC48BC490860A1
:101B1000D1A0FEF70FFC00BF00BFD6A0FEF70AFC65
:101B2000694642A0FEF712FC9DF8000068280CD020
:101B300006DC48280AD04C281AD04D2820D10EE0C7
:101B40006C2814D06D281BD108E000BF40F6B830D7
:101B5000D3490860D3A0FEF7EDFB19E000BF40F2C7
:101B6000DC50CF490860D8A0FEF7E4FB10E000BFCE
:101B70004FF47A70CA490860DDA0FEF7DBFB07E08E
:101B800040F2DC509E490860E2A0FEF7D3FB00BFA4
:101B900000BFE8A0FEF7CEFB08BD0000536574202F
:101BA00067616D6520706172616D65746572730A3D
:101BB00000000000456E74657220274C2720666F78
:101BC00072206C6F772C20274D2720666F72206D56
:101BD000656469756D20616E642027482720666FF3
:101BE0007220686967680A0A000000005365742063
:101BF000746865206E756D626572206F662062750F
:101C000074746F6E732070657220726F756E6420CD
:101C10007468617420617265206C6974207570202D
:101C200028312F322F34293A20000000256300008C
:101C3000001000200A4E756D626572206F6620628A
:101C40007574746F6E73207761732073657420747C
:101C50006F20340A000000000A4E756D6265722024
:101C60006F6620627574746F6E7320776173207372
:101C7000657420746F20320A000000000A4E756DF2
:101C8000626572206F6620627574746F6E73207760
:101C900061732073657420746F20310A00000000A6
:101CA0000A496E76616C696420696E70757420757E
:101CB00073696E6720310A000A53657420686F7774
:101CC000206C6F6E67206C69676874732073746131
:101CD00079206F6E2061667465722061206C6F736D
:101CE0007320282E35732F312E35732F3373293AF5
:101CF00020000000081000200A4C6F73652050651A
:101D00006E616C7479207761732073657420746FD1
:101D100020332E30730A00000A4C6F736520506523
:101D20006E616C7479207761732073657420746FB1
:101D300020312E35730A00000A4C6F736520506500
:101D40006E616C7479207761732073657420746F91
:101D5000202E35730A0000000A496E76616C6964B2
:101D600020696E707574207573696E6720312E3529
:101D7000730A0000282400080C1000200A526F7516
:101D80006E64205374617274757020776173207370
:101D9000657420746F20312E35730A000A526F75F6
:101DA0006E64205374617274757020776173207350
:101DB000657420746F202E35730A00000A526F7507
:101DC0006E64205374617274757020776173207330
:101DD000657420746F202E31730A00000A496E76F4
:101DE000616C696420696E707574207573696E67C3
:101DF000202E35730A000000CC2300089F860100C6
:101E0000141000200A4475726174696F6E20776146
:101E1000732073657420746F20696E660A00000079
:101E20000A4475726174696F6E20776173207365FF
:101E30007420746F203135730A0000000A447572F3
:101E40006174696F6E207761732073657420746F9D
:101E50002035730A000000000A496E76616C6964DF
:101E600020696E707574207573696E6720696E667F
:101E70000A0000000A53657420616D6F756E74204E
:101E80006F66207472656174732028486967682FD3
:101E90004D656469756D2F4C6F77293A20000000FD
:101EA000101000200A416D6F756E74206F662074EB
:101EB0007265617473207761732073657420746F29
:101EC00020486967680A00000A416D6F756E7420CA
:101ED0006F66207472656174732077617320736517
:101EE0007420746F204D656469756D0A00000000F0
:101EF0000A416D6F756E74206F662074726561742F
:101F000073207761732073657420746F204C6F7732
:101F10000A0000000A496E76616C696420696E707F
:101F20007574207573696E67204D656469756D0AF7
:101F3000000000000A0A47616D6520697320737410
:101F4000617274696E670A0010B586B0FFF76EF9AA
:101F5000FFF7C8F9002000F00BFA1420FFF7B0FCDF
:101F6000012000F005FA182208A16846FEF7D0FA11
:101F7000002406E01DF8041000220A48FFF736FA94
:101F8000641C172CF6DB06B010BD0000AEA83FD3D2
:101F90000040A0C0DA02817F2000A4A6DA12D5801A
:101FA0008D14AF000038004010B5044634B1012C48
:101FB0000AD0022C0ED0032C18D111E00E48006874
:101FC000012121EA501010BD0B480068012121EACF
:101FD0009010F8E708480068012121EA1020F2E794
:101FE00005480068012121EA5020ECE71F2203A1E7
:101FF00005A0FEF74DFA0000100800484255545461
:102000004F4E2E630000000030000000FFF766FA1C
:10201000FFF71EFAFEF756FFFEF702FEFFF794FFEA
:10202000FFF7D4F8FFF764F8B148FFF757FCFFF764
:102030007FFC4FF47A70FFF743FC58E1FEF748FE4F
:102040000020AC49086008E0AA480068FEF7C6FF17
:10205000A8480068401CA7490860A6480068A6492F
:1020600009688842F0DBA5480068FFF729FCA4480E
:102070000068A449086000209E4908600AE000202A
:10208000A1499C4A126841F822009A480068401C05
:1020900098490860974800680428F0DB2FE0FEF7B5
:1020A000EDF89549096890FBF1F201FB12009149A6
:1020B00008609548096850F8210028B90121924824
:1020C0008C4A126840F822108D4800688D490860DB
:1020D0000020884908600EE08B488649096850F85E
:1020E000210088490968081A864908608148006803
:1020F000401C804908607F4800680428ECDB814868
:1021000000680028CBD17B49086015E07E487949FA
:10211000096850F8210050B103E076480068FEF7E6
:1021200075FF74480068FEF789FF0028F5D07148F4
:102130000068401C6F4908606E4800686E49096875
:102140008842E3DB71480068714908606C480068A8
:102150006C49086025E000206649086017E0654882
:102160000068FFF721FF68B162480068FEF766FF6C
:1021700040B160480068FEF731FF62480068401EC9
:10218000604908605B480068401C5A49086059482B
:102190000068594909688842E1DB5A48006800B97B
:1021A00009E05A4800685A490968401A59490968BB
:1021B0008842D0D356E05848FFF790FB00204D49A5
:1021C000086008E04B480068FEF708FF49480068CF
:1021D000401C4849086047480068474909688842E8
:1021E000F0DB6420FFF76CFB0020424908601AE036
:1021F00000204A49086008E048480068FEF740FFB0
:1022000046480068401C45490860444800683A490F
:1022100009688842F0DB9620FFF752FB35480068DA
:10222000401C34490860334800680428E0DB012181
:102230004FF47A70FEF75CFD4FF47A70FFF740FBC5
:102240004FF47A70FEF734FF4FF47A70FFF738FBE3
:1022500000214FF47A70FEF74BFD4FF47A70FFF7D0
:102260002FFB44E02E48FFF739FB0020214908608E
:1022700008E020480068FEF7B1FE1E480068401CD8
:102280001C4908601B4800681B4909688842F0DB4C
:102290004FF4FA70FFF714FB00201649086008E0BD
:1022A00014480068FEF7B2FE12480068401C11494D
:1022B000086010480068104909688842F0DB194836
:1022C0000068FFF7FDFA00200A49086008E00948A5
:1022D0000068FEF783FE07480068401C0549086057
:1022E00004480068044909688842F0DB00BFA5E69D
:1022F000000C002018100020041000200C100020FA
:10230000001000202010002038100020281000208D
:102310002410002014100020000800201C100020B1
:10232000000400200810002030B10749096841F47A
:102330008051054A116005E00349096821F4805184
:10234000014A1160704700001408004830B1074985
:10235000096841F40061054A116005E00349096814
:1023600021F40061014A1160704700001408004820
:1023700030B10749096841F48061054A116005E000
:102380000349096821F48061014A11607047000027
:102390001408004810B500290AD00878002807D092
:1023A00005487844FEF7FCFB002801D0002010BD52
:1023B0000248784410BD0000FE000000F600000056
:1023C0004FF04070E1EE100A704700000A53657448
:1023D00020686F77206C6F6E6720796F7520686159
:1023E000766520746F20707265737320616C6C2049
:1023F00074686520627574746F6E73206265666FB1
:10240000726520796F75206C6F7365207468652024
:10241000726F756E64202835732F3135732F696E96
:1024200066293A20000000000A5365742074696D23
:10243000652064656C617920617420746865206230
:102440006567696E6E696E67206F66206561636897
:1024500020726F756E6420666F72206C6967687495
:10246000696E6720757020627574746F6E732028B2
:102470002E31732F2E35732F312E3573293A2000CC
:10248000B02500080000002038100000C40100083A
:10249000DC2900083810002058070000200200083E
:1024A0001001000043000000F8FFFFFF0040404023
:1024B0004040404040404141414141404040404017
:1024C00040404040404040404040404040050202C3
:1024D0000202020202020202020202020220202082
:1024E00020202020202020020202020202029090DE
:1024F00090909090101010101010101010101010DC
:10250000101010101010101002020202020288882F
:10251000888888880808080808080808080808083B
:102520000808080808080808020202024000000023
:10253000000000000000000000000000000000009B
:10254000000000000000000000000000000000008B
:10255000000000000000000000000000000000007B
:10256000000000000000000000000000000000006B
:10257000000000000000000000000000000000005B
:10258000000000000000000000000000000000004B
:10259000000000000000000000000000000000003B
:1025A000000000000000000000000000000000002B
:1025B0000A34FF013E3F1F0F0703012E07079787CD
:1025C000C7010B35CFDF4C0929012D7F3F3F1F018C
:1025D000300D1080D0E0F8F8FCFCFE7E0202280BE3
:1025E00080818183838387878FCF2409486F580830
:1025F000F9E3C3870F1F1F52743F07012C0201012B
:10260000F9130301480C3C3E9E5E7F2F3F2F1F1F96
:102610003F26100BF2F0E0C0E2FFFFDFE1811A017C
:10262000261D0707070F1B093B941D7F3F1F096FDE
:102630000221039C01038F370A10FC1F198F092FF9
:102640007E130F0107240818183838206E01070F71
:102650000F0F3A0210060D2FC0F0F8FC800526FC83
:10266000F8E0807FC0C0C0E0E0F863B3F1C00C3098
:1026700080C0E07B8901080A15FEFEFCF8F8F0E056
:10268000C0C08B7D080C0E7F2D7AFD361AFC360EED
:1026900039FCFCFCFEFE7B09128CAEFCF8F0F0E08D
:1026A000011AF06509344E01FF011000086E40C0A8
:1026B000C0E02040201008020E1E7AF4C0A01008CE
:1026C00080C0B00C170102180F80F0FC0C0602024B
:1026D0000402020EFCF8C08D4D02FEFE022A4BFEE3
:1026E0000209490D1AFE24811DF0F83CC634200869
:1026F0000602063CF8E010680C78FCE6C281818096
:1027000082061E122D2808FE060686C2060E331605
:102710001038FCF8341927917583FFFE0146073FF6
:102720007FE0A02E80C0FF3F0F25543FFFC0C38035
:10273000FF4AFF0E2580C0E080461F7FF088402EB4
:10274000C0F87F1F2015200BA101010703030F878D
:10275000FE3C280C0103FFFF01FF01010183802DD6
:1027600019353CC3C0010971191B6A01808911899F
:10277000ED390FB92159135919391BD9348A03106E
:10278000A92C4947693401FF01FF613A8001810E9C
:102790001130F070380818990EA9174918690B61A3
:1027A0007F20F07018081019091539A128100103AD
:1027B0000F1F7CF0E080408060B00C13012946F8C8
:1027C000FC3E030947020107FEFCE02CFFFFFF1B54
:1027D000390B9B01FE3E261FFFFCC2101CC03C9F14
:1027E0000922205DE01E030431592F2E071F7EF9B8
:1027F000E07A43FF031E0C7CFF7C1829C985996091
:10280000116D031F7FF8D545E0FF7F0F4E07FFFFD7
:1028100080401312FFBA1F3B3F0FFFFEE13C43090C
:102820006DFCF31E21A65980192F191B19845BF822
:10283000E0911480CFC0595F812B0203019B0202FB
:10284000561A010F6E020305010297491204100285
:1028500001051B0607014C060604091A0709195150
:10286000490A2B040614291C29842A070719099CE4
:102870000303046A01FF815A8004017810090102F0
:102880003C0219242418151C20203C06312060FC31
:1028900060203DF0F0F070014B8080CB6908490B5F
:1028A000990ED9FC180C6030180C04868282020242
:1028B0000301180C020604040444FCFCFCF8F85262
:1028C000C9017815F8F8FCFEFEFE9C880406026239
:1028D00062C6C68C081020C0563DFFFFFFE00124F1
:1028E0001F1F1F1F1C1C1CE3E3E306690B191F01BC
:1028F00014280B60FF81C0602020E7E1C08B1FC05F
:10290000E0F0F0FCFE2B091C0116FCF8F0E0C0160C
:102910000103024E78032301FE07153838380707F4
:10292000075303011E01010306FC5B48097F1F1FBB
:102930000F67733181151D030F1F0F3919015907D7
:10294000292D180C810161630F1F1FFEFC0C04016F
:102950003A02402A0E013CFEFEFE08611CC0C0C0C7
:10296000773901190B01243A01DB09102B240A0ED7
:10297000047C061A0A28195DFCE0F8FF29193F09B2
:10298000110E197D04243F3F3F1A783300081EFFC3
:10299000FF0F0E1C1C1C3B1E1F2AA2E019333E1CFD
:1029A0001C1F1F1F0859A62C01010E0149080125F3
:1029B000D809033F3FFFFFFEE0C0DA19421A01F4D5
:1029C000913C80C0F080043AFFF838320232042390
:0C29D000DC051AF45E32320322B80B0062
:040000050800018965
:00000001FF
