:020000040800F2
:10000000600600200D020008490200084B020008AB
:100010004D0200084F0200085102000800000000D5
:100020000000000000000000000000005302000873
:10003000550200080000000057020008590200089D
:100040005B0200085B0200085B0200085B0200081C
:100050005B0200085B0200085B0200085B0200080C
:100060005B0200085B0200085B0200085B020008FC
:100070005B0200085B0200085B0200085B020008EC
:100080005B0200085B0200085B0200085B020008DC
:100090005B0200085B0200085B0200080D03000819
:1000A0005B0200085B0200085B0200085B020008BC
:1000B0005B0200085B0200085B0200085B020008AC
:1000C0005B0200085B0200085B0200085B0200089C
:1000D0005B0200085B0200085B0200085B0200088C
:1000E0005B0200085B0200085B0200085B0200087C
:1000F0005B0200085B0200085B0200085B0200086C
:100100005B0200085B0200085B0200085B0200085B
:100110005B0200085B0200085B0200085B0200084B
:100120005B0200085B0200085B0200085B0200083B
:100130005B0200085B0200085B0200085B0200082B
:100140005B0200085B0200085B0200085B0200081B
:100150005B0200085B0200085B0200085B0200080B
:100160005B0200085B0200085B0200085B020008FB
:100170005B0200085B0200085B0200080000000050
:100180005B0200085B02000800F002F800F02EF8A5
:100190000AA090E8000C82448344AAF10107DA45E2
:1001A00001D100F023F8AFF2090EBAE80F0013F006
:1001B000010F18BFFB1A43F0010318473804000071
:1001C000480400000023002400250026103A28BF20
:1001D00078C1FBD8520728BF30C148BF0B607047B9
:1001E0001FB500F001FA1FBD10B510BD00F053F8A7
:1001F0001146FFF7F5FF00F0EFF900F071F803B4D6
:10020000FFF7F2FF03BC00F079F800001648174929
:10021000174B99423CBF50F8042B41F8042BF8D3FC
:1002200014494FF000028B4238BF43F8042BFAD335
:10023000DFF84400016841F470010160BFF34F8FA3
:10024000BFF36F8F0D480047FEE7FEE7FEE7FEE7CE
:10025000FEE7FEE7FEE7FEE7FEE7FEE7084809499E
:10026000094A0A4B704700000406000800000020FD
:10027000000000206006002088ED00E089010008F1
:100280006000002060060020600200206002002064
:10029000704770477047754600F02CF8AE46050071
:1002A0006946534620F00700854618B020B5FFF791
:1002B000D5FFBDE820404FF000064FF000074FF09B
:1002C00000084FF0000B21F00701AC46ACE8C00974
:1002D000ACE8C009ACE8C009ACE8C0098D4670477D
:1002E00010B50446AFF300802046BDE81040FFF78C
:1002F00086BF000000487047000000200149182018
:10030000ABBEFEE7260002007047000010B50A48A9
:10031000006800F4007038B100F0A6F806480068E4
:1003200020F40070044908600448006840F400703C
:100330000249086010BD0000100800481404014084
:1003400010B54348C06C40F004004149C8644148BE
:10035000006820F440203F4908603E480C300068A7
:1003600020F440203B490C3108603A48006820F4F2
:1003700040303849086037480C30006820F440307D
:1003800034490C3108603248006E40F001003049B9
:1003900008663148006920F070012F48016100694A
:1003A00040F020012C480161006920F007012A4833
:1003B0000161006940F00201274801612748006897
:1003C00020F4007025490860081D006840F40070A2
:1003D000091D0860081F006820F48070091F08606C
:1003E000081D006840F48070091D08601B4808382B
:1003F000006840F400701949083908600846006830
:1004000040F480700860172000280DDB00BF00BF9B
:1004100000F01F02012191404209920002F1E02206
:10042000C2F8001100BF00BF00BF17200021002844
:1004300004DB0A07130E0A4A135406E00A07140ED7
:10044000084A00F00F031B1FD45400BF10BD00006A
:10045000001002400008004800000140080401406C
:1004600000E400E018ED00E00348006880F00100BF
:100470000149086070470000140800484348C06CF8
:1004800040F001004149C8640846C06C40F00400D7
:10049000C8644FF09040006820F400604FF0904135
:1004A00008600846006840F48060086008464068BC
:1004B00020F0200048600846C06820F44060C86012
:1004C0003348006820F0020031490860084600689F
:1004D00040F001000860081D006820F00100091DBF
:1004E00008602B480C30006820F0030028490C31CC
:1004F00008602748006820F0080025490860084681
:10050000006840F004000860081D006820F0020048
:10051000091D08601E480C30006820F00C001C49C2
:100520000C3108601A48006820F020001849086063
:100530000846006840F010000860081D006820F0C0
:100540000400091D086012480C30006820F03000DB
:100550000F490C3108600E48006820F080000C49FB
:1005600008600846006840F040000860081D006808
:1005700020F00800091D086005480C30006820F0D4
:10058000C00003490C3108607047000000100240B1
:10059000000800480F48006840F480700D4908606A
:1005A00000BF0C48006800F480600028F9D00948BA
:1005B000806820F00300074988600846806840F0A2
:1005C0000100886000BF0348806800F00C0000282C
:1005D000F9D0704700100240FFF7DCFFFFF74EFF35
:1005E000FFF7AEFE00BFFEE74FF04070E1EE100AED
:1005F00070470000040600080000002060060000AC
:04060000C401000829
:040000050800018965
:00000001FF
