:020000040800F2
:10000000600B00206D020008A9020008AB02000886
:10001000AD020008AF020008B102000800000000B5
:10002000000000000000000000000000B302000813
:10003000B502000800000000B702000869080008C7
:10004000BB020008BB020008BB020008BB0200089C
:10005000BB020008BB020008BB020008BB0200088C
:10006000BB020008BB020008BB020008BB0200087C
:10007000BB020008BB020008BB020008BB0200086C
:10008000BB020008BB020008BB020008BB0200085C
:10009000BB020008BB020008BB020008BB0200084C
:1000A000BB020008BB020008BB020008BB0200083C
:1000B000BB020008BB020008BB020008BB0200082C
:1000C000BB020008BB020008BB020008BB0200081C
:1000D000BB020008BB020008BB020008BB0200080C
:1000E000BB020008BB020008BB020008BB020008FC
:1000F000BB020008BB020008BB020008BB020008EC
:10010000BB020008BB020008BB020008BB020008DB
:10011000BB020008BB020008BB020008BB020008CB
:10012000BB020008BB020008BB020008BB020008BB
:10013000BB020008BB020008BB020008BB020008AB
:10014000BB020008BB020008BB020008BB0200089B
:10015000BB020008BB020008BB020008BB0200088B
:10016000BB020008BB020008BB020008BB0200087B
:10017000BB020008BB020008BB0200080000000030
:10018000BB020008BB02000800F002F800F05EF8B5
:100190000AA090E8000C82448344AAF10107DA45E2
:1001A00001D100F053F8AFF2090EBAE80F0013F0D6
:1001B000010F18BFFB1A43F001031847200A000083
:1001C000400A00000A444FF0000C10F8013B13F005
:1001D000070408BF10F8014B1D1108BF10F8015BA0
:1001E000641E05D010F8016B641E01F8016BF9D193
:1001F00013F0080F1EBF10F8014BAD1C0C1B09D1EA
:100200006D1E58BF01F801CBFAD505E014F8016B5B
:1002100001F8016B6D1EF9D59142D6D370470000ED
:100220000023002400250026103A28BF78C1FBD8FF
:10023000520728BF30C148BF0B6070471FB500F0A0
:10024000C7FC00F06AF81FBD10B510BD00F0A3F8A0
:100250001146FFF7F3FF00F06BFC00F0C1F803B4A8
:10026000FFF7F2FF03BC00F0CBF800001648174977
:10027000174B99423CBF50F8042B41F8042BF8D39C
:1002800014494FF000028B4238BF43F8042BFAD3D5
:10029000DFF84400016841F470010160BFF34F8F43
:1002A000BFF36F8F0D480047FEE7FEE7FEE7FEE76E
:1002B000FEE7FEE7FEE7FEE7FEE7FEE7084809493E
:1002C000094A0A4B70470000FC0B000800000020A0
:1002D00018040020600B002088ED00E08901000870
:1002E00060050020600B00206007002060070020F0
:1002F0000B4910B5A1F17C020A4CC2E93712372133
:1003000006E000EB104342F82130074B00FB0340AE
:100310000B1EA1F10101F4DC10BD0120E8E7000093
:1003200094040020E119D666CD0D010010B5203AE5
:10033000C0F00B80B1E81850203AA0E81850B1E89E
:100340001850A0E81850BFF4F5AF5FEA027C24BF54
:10035000B1E81850A0E8185044BF18C918C0BDE84B
:1003600010405FEA827C24BF51F8043B40F8043B14
:1003700008BF7047D20728BF31F8023B48BF11F8C9
:10038000012B28BF20F8023B48BF00F8012B704723
:10039000704770477047754600F02CF8AE46050070
:1003A0006946534620F00700854618B020B5FFF790
:1003B00085FFBDE820404FF000064FF000074FF0EA
:1003C00000084FF0000B21F00701AC46ACE8C00973
:1003D000ACE8C009ACE8C009ACE8C0098D4670477C
:1003E00010B50446AFF300802046BDE81040FFF78B
:1003F00036BF000000487047FC0400207047000032
:1004000001491820ABBEFEE7260002002948C06C57
:1004100040F004002749C8642748006820F4406081
:100420002549086024480C30006820F440602249C7
:100430000C3108600846006840F4806008601E487F
:10044000006820F440501C4908601B480C300068CC
:1004500020F4405018490C3108600846006840F408
:10046000805008601448006820F440301249086049
:1004700011480C30006820F440300F490C310860FE
:100480000846006840F4803008600B48006820F49B
:1004900040200949086008480C30006820F44020DA
:1004A00005490C3108600846006840F48020086067
:1004B00070470000001002400008004810B50024FA
:1004C00005E001220021044800F0AEF9641CB4F5F7
:1004D000806FF6DB10BD0000003800404FF0904008
:1004E000406980F020004FF0904148617047000063
:1004F0004348C06C40F001004149C8640846C06CE4
:1005000040F00400C8644FF09040006820F40060A0
:100510004FF0904108600846006840F48060086031
:100520000846406820F0200048600846C06820F473
:100530004060C8603348006820F00200314908601C
:100540000846006840F001000860081D006820F0BF
:100550000100091D08602B480C30006820F00300E2
:1005600028490C3108602748006820F00800254918
:1005700008600846006840F004000860081D006834
:1005800020F00200091D08601E480C30006820F0B1
:100590000C001C490C3108601A48006820F020004B
:1005A000184908600846006840F010000860081DFF
:1005B000006820F00400091D086012480C30006833
:1005C00020F030000F490C3108600E48006820F020
:1005D00080000C4908600846006840F04000086050
:1005E000081D006820F00800091D086005480C304F
:1005F000006820F0C00003490C310860704700001B
:10060000001002400008004810B51548C06C40F4C6
:1006100080201349C86412488830006840F0406068
:10062000C1F888000846C06A40F48020C8620846C5
:10063000C06A20F48020C8620A48006840F00400C4
:100640000849086000BF0748001D006800F001006D
:100650000028F8D0034908310868FFF749FE10BDAB
:1006600000100240000806502948C06C40F002000B
:100670002749C8640846C06C40F00400C864254897
:10068000006820F07C70234908600846006840F04C
:10069000A87008602048006820F040601E4908608B
:1006A0000846006840F0006008600846006820F0D6
:1006B000404008600846006840F000400860084676
:1006C000406A1649084314494862081D006820F42E
:1006D0000050091D08600846006820F400400860CA
:1006E000081D006840F04060091D08600846006869
:1006F00040F040400860081D006820F04060091D7F
:1007000008600846006820F040400860704700001C
:100710000010024000080048000400480000505546
:100720003F48806D40F480403D4988650846806BB5
:1007300040F4804088630846806B20F480408863E2
:100740003848006820F040003649086008460068D4
:1007500020F4806008600846006820F400400860CB
:100760000846006820F4804008600846006820F0D1
:1007700080000860081D006840F48070091D086052
:100780000846006840F4007008600846006840F4BD
:10079000806008600846006820F400600860084631
:1007A000006820F010000860081F006820F00200B8
:1007B000091F08600846006820F00100086008462C
:1007C000006840F0080008600846006840F010002B
:1007D00008600846006820F02000086008460068AD
:1007E00020F4005008600846006840F004000860EB
:1007F0000846006840F400700860081D006840F07A
:100800000800091D08600846006840F48050086030
:10081000081F006840F04000091F08607047000092
:10082000001002400038004030B503460D46144623
:10083000002000F097F9204600F0A6F900BF094813
:10084000006800F002000028F9D01D7300BF0548C1
:10085000006800F080000028F9D1012000F082F942
:1008600030BD00000838004002480068401C0149C3
:10087000086070471404002010B500204FF0E021FC
:10088000086142F20F70486100208861401E002814
:100890000DDB00BF00BF00F01F02012191404209A3
:1008A000920002F1E022C2F8001100BF00BF00BFB9
:1008B0004FF0FF300121002804DB0A07130E0F4A16
:1008C000135406E00A07140E0D4A00F00F031B1F15
:1008D000D45400BF4FF0E020006940F002004FF018
:1008E000E02108610846006920F00400086108461C
:1008F000006940F00100086110BD000000E400E064
:1009000018ED00E000B500F001F800BD5E4909688F
:1009100021F007015C4A11601146096841F00201AB
:1009200011605A49096841F48071584A116000BF4A
:100930005649096801F480610029F9D01020534913
:10094000496821F0F851514A51601146496841EA1D
:10095000006151601146096821F08071116000BF8B
:100960004A49096801F00071B1F1007FF8D04749A8
:10097000C96821F00301454AD1601146C96841F0B8
:100980000201D1601146C96821F4FE4141F4A05131
:10099000D1601146C96821F0700141F01001D160A9
:1009A0001146C96821F0C061D1601146C96841F0A3
:1009B0008071D1601146096841F08071116000BFFB
:1009C0003249096801F000710029F9D02F4989687E
:1009D00021F003012D4A91601146896841F003011D
:1009E000916000BF2949896801F00C010C29F9D1F7
:1009F0002649896821F0F001244A916011468968EE
:100A000021F4E06191601146896821F460519160A0
:100A10001146096821F08061116000BF1B49096817
:100A200001F08061B1F1806FF8D01849096921F4B3
:100A3000FE41164A11611146096941F4C051116124
:100A40001146096941F4003111611146096941F407
:100A5000803111611146096841F08061116000BF69
:100A60000A49096801F080610029F9D007498831F5
:100A7000096821F44001054AC2F888101146096E40
:100A800041F400111166704700200240001002403E
:100A9000054A116800BF044A1268521A8242FAD30A
:100AA0000022014B1A6070471404002070B50546FF
:100AB000FFF704FD002405E0295D01220348FFF74C
:100AC000B3FE641CB4F5806FF6DB70BD00380040E7
:100AD00010B586B0FFF7C8FDFFF722FE002000F03A
:100AE00065F81420FFF7D4FF012000F05FF818220A
:100AF00008A16846FFF71AFC002406E01DF8041060
:100B000000220A48FFF790FE641C172CF6DB06B0A3
:100B100010BD0000AEA83FD30040A0C0DA02817F24
:100B20002000A4A6DA12D5808D14AF000038004052
:100B3000FFF7E8FEFFF7A0FEFFF7DAFCFFF766FC21
:100B4000FFF7C6FFFFF760FD0548FFF7AFFF05E0C1
:100B5000FFF7C4FC4FF47A70FFF79AFFF8E7000044
:100B60000000002030B10749096841F48051054A6E
:100B7000116005E00349096821F48051014A1160C0
:100B8000704700001408004830B10749096841F473
:100B90000061054A116005E00349096821F400611C
:100BA000014A1160704700001408004830B107493D
:100BB000096841F48061054A116005E0034909684C
:100BC00021F48061014A1160704700001408004858
:100BD0004FF04070E1EE100A70470000FC0B000877
:100BE0000000002018040000C4010008000D0008E7
:100BF0001804002048070000200200080A34FF0102
:100C00003E3F1F0F0703012E07079787C7010B35CC
:100C1000CFDF4C0929012D7F3F3F1F01300D108090
:100C2000D0E0F8F8FCFCFE7E0202280B8081818374
:100C3000838387878FCF2409486F5808F9E3C387D8
:100C40000F1F1F52743F07012C020101F91303010A
:100C5000480C3C3E9E5E7F2F3F2F1F1F3F26100BF0
:100C6000F2F0E0C0E2FFFFDFE1811A01261D070775
:100C7000070F1B093B941D7F3F1F096F0221039C37
:100C800001038F370A10FC1F198F092F7E130F01E4
:100C900007240818183838206E01070F0F0F3A0282
:100CA00010060D2FC0F0F8FC800526FCF8E0807FD0
:100CB000C0C0C0E0E0F863B3F1C00C3080C0E07B9E
:100CC0008901080A15FEFEFCF8F8F0E0C0C08B7D33
:100CD000080C0E7F2D7AFD361AFC360E39FCFCFC12
:100CE000FEFE7B09128CAEFCF8F0F0E0011AF06514
:100CF00009344E3201320223DC051AF40D63B80BBD
:040000050800018965
:00000001FF
