:020000040800F2
:1000000088170020A1020008DD020008DF020008B6
:10001000E1020008E3020008E50200080000000019
:10002000000000000000000000000000E7020008DF
:10003000E902000800000000EB020008F90B0008CC
:10004000EF020008EF020008EF020008EF020008CC
:10005000EF020008EF020008EF020008EF020008BC
:10006000EF020008EF020008EF020008EF020008AC
:10007000EF020008EF020008EF020008EF0200089C
:10008000EF020008EF020008EF020008EF0200088C
:10009000EF020008EF020008EF020008EF0200087C
:1000A000EF020008EF020008EF020008EF0200086C
:1000B000EF020008EF020008EF020008EF0200085C
:1000C000EF020008EF020008EF020008EF0200084C
:1000D000EF020008EF020008EF020008EF0200083C
:1000E000EF020008EF020008EF020008EF0200082C
:1000F000EF020008EF020008EF020008EF0200081C
:10010000EF020008EF020008EF020008EF0200080B
:10011000EF020008EF020008EF020008EF020008FB
:10012000EF020008EF020008EF020008EF020008EB
:10013000EF020008EF020008EF020008EF020008DB
:10014000EF020008EF020008EF020008EF020008CB
:10015000EF020008EF020008EF020008EF020008BB
:10016000EF020008EF020008EF020008EF020008AB
:10017000EF020008EF020008EF0200080000000094
:10018000EF020008EF02000800F002F800F05EF84D
:100190000AA090E8000C82448344AAF10107DA45E2
:1001A00001D100F053F8AFF2090EBAE80F0013F0D6
:1001B000010F18BFFB1A43F001031847001000009D
:1001C000201000000A444FF0000C10F8013B13F01F
:1001D000070408BF10F8014B1D1108BF10F8015BA0
:1001E000641E05D010F8016B641E01F8016BF9D193
:1001F00013F0080F1EBF10F8014BAD1C0C1B09D1EA
:100200006D1E58BF01F801CBFAD505E014F8016B5B
:1002100001F8016B6D1EF9D59142D6D370470000ED
:100220000023002400250026103A28BF78C1FBD8FF
:10023000520728BF30C148BF0B6070471FB500F0A0
:10024000B7FF00F084F81FBD10B510BD00F028F90D
:100250001146FFF7F3FF00F05DFE00F046F903B42E
:10026000FFF7F2FF03BC00F00DF900000B49D1F8D5
:1002700000C04A685CF8043B1068184442F8040B5C
:100280008C4528BFA1F1DC0C8A4228BFA1F1DC0219
:10029000C1F800C04A6020F0004070471C110020E7
:1002A00016481749174B99423CBF50F8042B41F8A8
:1002B000042BF8D314494FF000028B4238BF43F8A7
:1002C000042BFAD3DFF84400016841F470010160A7
:1002D000BFF34F8FBFF36F8F0D480047FEE7FEE778
:1002E000FEE7FEE7FEE7FEE7FEE7FEE7FEE7FEE7E6
:1002F00008480949094A0A4B70470000DC11000808
:1003000000000020301000208817002088ED00E059
:100310008901000888110020881700208813002018
:10032000881300200B4910B5A1F17C020A4CC2E9E8
:100330003712372106E000EB104342F82130074B1B
:1003400000FB03400B1EA1F10101F4DC10BD0120F4
:10035000E8E70000BC100020E119D666CD0D0100D1
:100360000EB5054614460E4613A000F079F828464F
:1003700000F076F816A000F073F8304600F070F840
:1003800015A000F06DF800218DF80B100A210DF179
:100390000A008DF80A1008E094FBF1F201FB12420A
:1003A00094FBF1F4303200F8012D002CF4DC00F065
:1003B00057F800F04AF800002A2A2A206173736572
:1003C0007274696F6E206661696C65643A20000022
:1003D0002C2066696C6520002C206C696E652000FD
:1003E00010B5203AC0F00B80B1E81850203AA0E8D0
:1003F0001850B1E81850A0E81850BFF4F5AF5FEA04
:10040000027C24BFB1E81850A0E8185044BF18C9B6
:1004100018C0BDE810405FEA827C24BF51F8043B5D
:1004200040F8043B08BF7047D20728BF31F8023BB1
:1004300048BF11F8012B28BF20F8023B48BF00F845
:10044000012B704770477047704710B5002000F0CF
:100450001FF8FFF7F9FEBDE81040012000F012B8C8
:1004600010B5044602E0641C00F004F8207800286F
:10047000F9D110BD08B569468DF800000320ABBE68
:1004800008BD000001491820ABBEFEE726000200AF
:1004900010B500F039F8BDE8104000F02FB87047F3
:1004A000754600F049F8AE4605006946534620F00F
:1004B0000700854618B020B5FFF71AFFBDE82040B9
:1004C0004FF000064FF000074FF000084FF0000B10
:1004D00021F00701AC46ACE8C009ACE8C009ACE8C3
:1004E000C009ACE8C0098D46704710B50446AFF3AB
:1004F00000802046BDE81040FFF7B1BE002801D0C3
:10050000FFF7C0BF7047000010B5002102A000F047
:1005100017F8012010BD0000534947414252543A98
:100520002041626E6F726D616C207465726D696ED0
:100530006174696F6E00000000487047241100204C
:1005400070B505460C460A2000E06D1CFFF792FFCF
:1005500035B128780028F8D102E0641CFFF78AFF43
:1005600014B120780028F8D1BDE870400A20FFF7C8
:1005700081BF00002948C06C40F004002749C864CE
:100580002748006820F440602549086024480C3062
:10059000006820F4406022490C3108600846006879
:1005A00040F4806008601E48006820F440501C49F8
:1005B00008601B480C30006820F4405018490C318A
:1005C00008600846006840F48050086014480068DD
:1005D00020F440301249086011480C30006820F4C3
:1005E00040300F490C3108600846006840F4803004
:1005F00008600B48006820F440200949086008485A
:100600000C30006820F4402005490C310860084691
:10061000006840F48020086070470000001002402D
:10062000000800480348006820F001000149086004
:1006300070470000140800480348006840F00100BB
:10064000014908607047000014080048024800682B
:1006500000F00100704700001408004803480068DB
:1006600080F001000149086070470000140800484C
:100670000348006820F0020001490860704700004C
:10068000140800480348006840F00200014908606F
:1006900070470000140800480248006800F002009B
:1006A00070470000140800480348006880F002000A
:1006B00001490860704700001408004803480068BA
:1006C00020F0040001490860704700001408004849
:1006D0000348006840F004000149086070470000CA
:1006E000140800480248006800F004007047000049
:1006F000140800480348006880F0040001490860BD
:1007000070470000140800480348006820F0080003
:100710000149086070470000140800480348006859
:1007200040F00800014908607047000014080048C4
:100730000248006800F008007047000014080048F4
:100740000348006880F00800014908607047000015
:10075000140800484348C06C40F001004149C86497
:100760000846C06C40F00400C8644FF09040006838
:1007700020F400604FF0904108600846006840F4A3
:10078000806008600846406820F020004860084605
:10079000C06820F44060C8603348006820F0020060
:1007A000314908600846006840F001000860081DF3
:1007B000006820F00100091D08602B480C3000681B
:1007C00020F0030028490C3108602748006820F019
:1007D0000800254908600846006840F004000860E9
:1007E000081D006820F00200091D08601E480C303A
:1007F000006820F00C001C490C3108601A480068A1
:1008000020F02000184908600846006840F01000F9
:100810000860081D006820F00400091D08601248E7
:100820000C30006820F030000F490C3108600E4891
:10083000006820F080000C4908600846006840F01D
:1008400040000860081D006820F00800091D0860CD
:1008500005480C30006820F0C00003490C310860E6
:1008600070470000001002400008004800B5024632
:1008700032B1012A07D0022A08D0032A0CD108E09D
:10088000FFF7D0FE08E0FFF7F3FE05E0FFF716FFE5
:1008900002E0FFF739FF00BF00BF00BD00B5024610
:1008A00032B1012A07D0022A08D0032A0CD108E06D
:1008B000FFF7C2FE08E0FFF7E5FE05E0FFF708FFDF
:1008C00002E0FFF72BFF00BF00BF00BD10B50446DC
:1008D00034B1012C07D0022C08D0032C0CD108E035
:1008E000FFF7B4FE10BDFFF7D7FEFBE7FFF7FAFEF8
:1008F000F8E7FFF71DFFF5E7542202A103A0FFF779
:100900002FFD00004C45442E630000003000000025
:1009100000B5024632B1012A07D0022A08D0032AC4
:100920000CD108E0FFF79AFE08E0FFF7BDFE05E0F6
:10093000FFF7E0FE02E0FFF703FF00BF00BF00BDCE
:100940001348C06C40F002001149C86411480068A7
:1009500020F003000F4908600846006840F00100DD
:100960000860081D006820F00100091D08600948A2
:100970000C30006820F4406006490C3108600548DE
:100980001430006820F001000249143108607047FB
:10099000001002400004004810B51548C06C40F437
:1009A00080201349C86412488830006840F04060D5
:1009B000C1F888000846C06A40F48020C862084632
:1009C000C06A20F48020C8620A48006840F0040031
:1009D0000849086000BF0748001D006800F00100DA
:1009E0000028F8D0034908310868FFF79BFC10BDC8
:1009F00000100240000806502948C06C40F0020078
:100A00002749C8640846C06C40F00400C864254803
:100A1000006820F07C70234908600846006840F0B8
:100A2000A87008602048006820F040601E490860F7
:100A30000846006840F0006008600846006820F042
:100A4000404008600846006840F0004008600846E2
:100A5000406A1649084314494862081D006820F49A
:100A60000050091D08600846006820F40040086036
:100A7000081D006840F04060091D086008460068D5
:100A800040F040400860081D006820F04060091DEB
:100A900008600846006820F0404008607047000089
:100AA00000100240000800480004004800005055B3
:100AB0003F48806D40F480403D4988650846806B22
:100AC00040F4804088630846806B20F4804088634F
:100AD0003848006820F04000364908600846006841
:100AE00020F4806008600846006820F40040086038
:100AF0000846006820F4804008600846006820F03E
:100B000080000860081D006840F48070091D0860BE
:100B10000846006840F4007008600846006840F429
:100B2000806008600846006820F40060086008469D
:100B3000006820F010000860081F006820F0020024
:100B4000091F08600846006820F001000860084698
:100B5000006840F0080008600846006840F0100097
:100B600008600846006820F0200008600846006819
:100B700020F4005008600846006840F00400086057
:100B80000846006840F400700860081D006840F0E6
:100B90000800091D08600846006840F4805008609D
:100BA000081F006840F04000091F086070470000FF
:100BB000001002400038004030B503460D46144690
:100BC000002000F0BFFA204600F0CEFA00BF09482E
:100BD000006800F002000028F9D01D7300BF05482E
:100BE000006800F080000028F9D1012000F0AAFA86
:100BF00030BD00000838004006480068401C054928
:100C000008600548006820B103480068401E02499A
:100C100008607047281000202C10002010B500201C
:100C20004FF0E021086142F20F70486100208861B6
:100C3000401E00280DDB00BF00BF00F01F02012195
:100C400091404209920002F1E022C2F8001100BF77
:100C500000BF00BF4FF0FF300121002804DB0A076E
:100C6000130E0F4A135406E00A07140E0D4A00F043
:100C70000F031B1FD45400BF4FF0E020006940F069
:100C800002004FF0E02108610846006920F00400EE
:100C900008610846006940F00100086110BD0000CD
:100CA00000E400E018ED00E000B500F001F800BD40
:100CB0005E49096821F007015C4A11601146096824
:100CC00041F0020111605A49096841F48071584AA3
:100CD000116000BF5649096801F480610029F9D00C
:100CE00010205349496821F0F851514A516011468A
:100CF000496841EA006151601146096821F080713C
:100D0000116000BF4A49096801F00071B1F1007F2C
:100D1000F8D04749C96821F00301454AD16011461E
:100D2000C96841F00201D1601146C96821F4FE4151
:100D300041F4A051D1601146C96821F0700141F021
:100D40001001D1601146C96821F0C061D16011461F
:100D5000C96841F08071D1601146096841F0807125
:100D6000116000BF3249096801F000710029F9D013
:100D70002F49896821F003012D4A91601146896845
:100D800041F00301916000BF2949896801F00C011D
:100D90000C29F9D12649896821F0F001244A916093
:100DA0001146896821F4E06191601146896821F457
:100DB000605191601146096821F08061116000BFA7
:100DC0001B49096801F08061B1F1806FF8D01849C2
:100DD000096921F4FE41164A11611146096941F47D
:100DE000C05111611146096941F400311161114688
:100DF000096941F4803111611146096841F080614F
:100E0000116000BF0A49096801F080610029F9D02A
:100E100007498831096821F44001054AC2F8881061
:100E20001146096E41F4001111667047002002401E
:100E300000100240054A116800BF044A1268521AA5
:100E40008242FAD30022014B1A607047281000201A
:100E500010B586B0FFF7D0FDFFF72AFE002000F0A6
:100E600095F91420FFF7E6FF012000F08FF9182212
:100E700008A16846FFF7B4FA002406E01DF8041044
:100E800000220A48FFF798FE641C172CF6DB06B018
:100E900010BD0000AEA83FD30040A0C0DA02817FA1
:100EA0002000A4A6DA12D5808D14AF0000380040CF
:100EB00010B5044634B1012C0AD0022C0ED0032CFC
:100EC00018D111E00E480068012121EA501010BD30
:100ED0000B480068012121EA9010F8E708480068F3
:100EE000012121EA1020F2E705480068012121EAEA
:100EF0005020ECE71F2203A105A0FFF731FA000004
:100F000010080048425554544F4E2E630000000014
:100F100030000000FFF7C8FEFFF780FEFFF71AFC65
:100F2000FFF728FBFFF794FFFFF736FDFFF708FDFB
:100F3000F4E000207A49086008E079480068FFF78B
:100F400095FC77480068401C754908607448006843
:100F5000744909688842F0DB734800687349086087
:100F600000206F4908600AE0002071496C4A12684D
:100F700041F822006A480068401C694908606848D6
:100F800000680428F0DB2FE0FFF770F96549096875
:100F900090FBF1F201FB12006149086064480968A6
:100FA00050F8210028B9012061495D4A126841F8D2
:100FB00022005D4800685D490860002058490860CB
:100FC0000EE05B485649096850F821005749096806
:100FD000081A5649086052480068401C5049086089
:100FE0004F4800680428ECDB504800680028CBD14B
:100FF0004B49086015E04E484949096850F82100FE
:1010000050B103E046480068FFF748FC44480068D8
:10101000FFF75CFC0028F5D041480068401C4049BF
:1010200008603F4800683F4909688842E3DB41485F
:101030000068414908603C4800683C49086025E078
:1010400000203749086017E035480068FFF730FF97
:1010500068B133480068FFF739FC40B13048006898
:10106000FFF704FC31480068401E304908602C48F6
:101070000068401C2A490860294800682949096815
:101080008842E1DB2948006800B909E02948006886
:1010900029490968401A294909688842D0D3CFE70D
:1010A00000201F49086008E01D480068FFF7DEFBCC
:1010B0001B480068401C1A49086019480068194913
:1010C00009688842F0DB6420FFF7B4FE0020144971
:1010D00008601AE000201A49086008E01848006813
:1010E000FFF716FC16480068401C154908601448B4
:1010F00000680C4909688842F0DB9620FFF79AFEE9
:1011000007480068401C0649086005480068042834
:10111000E0DB4FF47A70FFF78DFE00BF09E70000B7
:1011200018100020041000200010002020100020C3
:10113000301000202810002024100020141000205F
:101140001C10002030B10749096841F48051054A5C
:10115000116005E00349096821F48051014A1160DA
:10116000704700001408004830B10749096841F48D
:101170000061054A116005E00349096821F4006136
:10118000014A1160704700001408004830B1074957
:10119000096841F48061054A116005E00349096866
:1011A00021F48061014A1160704700001408004872
:1011B0004FF04070E1EE100A70470000DC110008AB
:1011C0000000002030100000C401000808160008CC
:1011D0003010002058070000200200080A34FF01E8
:1011E0003E3F1F0F0703012E07079787C7010B35E7
:1011F000CFDF4C0929012D7F3F3F1F01300D1080AB
:10120000D0E0F8F8FCFCFE7E0202280B808181838E
:10121000838387878FCF2409486F5808F9E3C387F2
:101220000F1F1F52743F07012C020101F913030124
:10123000480C3C3E9E5E7F2F3F2F1F1F3F26100B0A
:10124000F2F0E0C0E2FFFFDFE1811A01261D07078F
:10125000070F1B093B941D7F3F1F096F0221039C51
:1012600001038F370A10FC1F198F092F7E130F01FE
:1012700007240818183838206E01070F0F0F3A029C
:1012800010060D2FC0F0F8FC800526FCF8E0807FEA
:10129000C0C0C0E0E0F863B3F1C00C3080C0E07BB8
:1012A0008901080A15FEFEFCF8F8F0E0C0C08B7D4D
:1012B000080C0E7F2D7AFD361AFC360E39FCFCFC2C
:1012C000FEFE7B09128CAEFCF8F0F0E0011AF0652E
:1012D00009344E01FF011000086E40C0C0E02040FC
:1012E000201008020E1E7AF4C0A0100880C0B00CB6
:1012F000170102180F80F0FC0C0602020402020E15
:10130000FCF8C08D4D02FEFE022A4BFE0209490D7B
:101310001AFE24811DF0F83CC63420080602063C63
:10132000F8E010680C78FCE6C281818082061E120B
:101330002D2808FE060686C2060E33161038FCF865
:10134000341927917583FFFE0146073F7FE0A02EE9
:1013500080C0FF3F0F25543FFFC0C380FF4AFF0EF0
:101360002580C0E080461F7FF088402EC0F87F1F98
:101370002015200BA101010703030F87FE3C280C59
:101380000103FFFF01FF01010183802D19353CC3DB
:10139000C0010971191B6A0180891189ED390FB9E2
:1013A0002159135919391BD9348A0310A92C4947DB
:1013B000693401FF01FF613A8001810E1130F07044
:1013C000380818990EA9174918690B617F20F07029
:1013D00018081019091539A1281001030F1F7CF0F6
:1013E000E080408060B00C13012946F8FC3E030900
:1013F00047020107FEFCE02CFFFFFF1B390B9B019E
:10140000FE3E261FFFFCC2101CC03C9F0922205D2F
:10141000E01E030431592F2E071F7EF9E07A43FFA7
:10142000031E0C7CFF7C1829C9859960116D031F70
:101430007FF8D545E0FF7F0F4E07FFFF8040131276
:10144000FFBA1F3B3F0FFFFEE13C43096DFCF31E5B
:1014500021A65980192F191B19845BF8E09114807B
:10146000CFC0595F812B0203019B0202561A010F64
:101470006E020305010297491204100201051B06C2
:1014800007014C060604091A07091951490A2B04D9
:101490000614291C29842A070719099C0303046AD6
:1014A00001FF815A80040178100901023C021924CD
:1014B0002418151C20203C06312060FC60203DF0E3
:1014C000F0F070014B8080CB6908490B990ED9FC74
:1014D000180C6030180C0486828202020301180C7A
:1014E000020604040444FCFCFCF8F852C901781517
:1014F000F8F8FCFEFEFE9C880406026262C6C68CFA
:10150000081020C0563DFFFFFFE001241F1F1F1FD2
:101510001C1C1CE3E3E306690B191F0114280B6074
:10152000FF81C0602020E7E1C08B1FC0E0F0F0FC2D
:10153000FE2B091C0116FCF8F0E0C0160103024E58
:1015400078032301FE0715383838070707530301CE
:101550001E01010306FC5B48097F1F1F0F677331E3
:1015600081151D030F1F0F3919015907292D180C5B
:10157000810161630F1F1FFEFC0C04013A02402A27
:101580000E013CFEFEFE08611CC0C0C07739011987
:101590000B01243A01DB09102B240A0E047C061AE5
:1015A0000A28195DFCE0F8FF29193F09110E197D81
:1015B00004243F3F3F1A783300081EFFFF0F0E1C24
:1015C0001C1C3B1E1F2AA2E019333E1C1C1F1F1FA0
:1015D0000859A62C01010E0149080125D809033F2D
:1015E0003FFFFFFEE0C0DA19421A01F4913C80C0CF
:1015F000F080043AFFF8383202320423DC051AF492
:081600005E3232031AB80B0040
:040000050800018965
:00000001FF
