:020000040800F2
:10000000600600200D020008490200084B020008AB
:100010004D0200084F0200085102000800000000D5
:100020000000000000000000000000005302000873
:10003000550200080000000057020008590200089D
:100040005B0200085B0200085B0200085B0200081C
:100050005B0200085B0200085B0200085B0200080C
:100060005B0200085B0200085B0200085B020008FC
:100070005B0200085B0200085B0200085B020008EC
:100080005B0200085B0200085B0200085B020008DC
:100090005B0200085B0200085B0200085B020008CC
:1000A0005B0200085B0200085B0200085B020008BC
:1000B0005B0200085B0200085B0200085B020008AC
:1000C0005B0200085B0200085B0200085B0200089C
:1000D0005B0200085B0200085B0200085B0200088C
:1000E0005B0200085B0200085B0200085B0200087C
:1000F0005B0200085B0200085B0200085B0200086C
:100100005B0200085B0200085B0200085B0200085B
:100110005B0200085B0200085B0200085B0200084B
:100120005B0200085B0200085B0200085B0200083B
:100130005B0200085B0200085B0200085B0200082B
:100140005B0200085B0200085B0200085B0200081B
:100150005B0200085B0200085B0200085B0200080B
:100160005B0200085B0200085B0200085B020008FB
:100170005B0200085B0200085B0200080000000050
:100180005B0200085B02000800F002F800F02EF8A5
:100190000AA090E8000C82448344AAF10107DA45E2
:1001A00001D100F023F8AFF2090EBAE80F0013F006
:1001B000010F18BFFB1A43F001031847A402000007
:1001C000B40200000023002400250026103A28BFB6
:1001D00078C1FBD8520728BF30C148BF0B607047B9
:1001E0001FB500F037F91FBD10B510BD00F053F872
:1001F0001146FFF7F5FF00F00DF900F071F803B4B8
:10020000FFF7F2FF03BC00F079F800001648174929
:10021000174B99423CBF50F8042B41F8042BF8D3FC
:1002200014494FF000028B4238BF43F8042BFAD335
:10023000DFF84400016841F470010160BFF34F8FA3
:10024000BFF36F8F0D480047FEE7FEE7FEE7FEE7CE
:10025000FEE7FEE7FEE7FEE7FEE7FEE7084809499E
:10026000094A0A4B70470000700400080000002093
:10027000000000206006002088ED00E089010008F1
:100280006000002060060020600200206002002064
:10029000704770477047754600F02CF8AE46050071
:1002A0006946534620F00700854618B020B5FFF791
:1002B000D5FFBDE820404FF000064FF000074FF09B
:1002C00000084FF0000B21F00701AC46ACE8C00974
:1002D000ACE8C009ACE8C009ACE8C0098D4670477D
:1002E00010B50446AFF300802046BDE81040FFF78C
:1002F00086BF000000487047000000200149182018
:10030000ABBEFEE72600020070470000034800680D
:1003100080F001000149086070470000140800489F
:100320000348006880F0020001490860704700003F
:10033000140800483548C06C40F004003349C864D4
:100340003348006820F00200314908600846006820
:1003500040F001000860081D006820F00100091D40
:1003600008602B480C30006820F0030028490C314D
:1003700008602748006820F0080025490860084602
:10038000006840F004000860081D006820F00200CA
:10039000091D08601E480C30006820F00C001C4944
:1003A0000C3108601A48006820F0200018490860E5
:1003B0000846006840F010000860081D006820F042
:1003C0000400091D086012480C30006820F030005D
:1003D0000F490C3108600E48006820F080000C497D
:1003E00008600846006840F040000860081D00688A
:1003F00020F00800091D086005480C30006820F056
:10040000C00003490C310860704700000010024032
:100410000008004808B5FFF78DFF002416E0641CB3
:10042000FFF774FF204604EBD0714910A4EB4101A3
:10043000012901D1FFF774FF0020009002E000982D
:10044000401C0090024900988842F8DBE7E7000072
:1004500020A107004FF04070E1EE100A7047000045
:10046000700400080000002060060000C4010008BD
:040000050800018965
:00000001FF
